:1000000008308A00002800000A108A100A118207AE
:10001000313432343334343435343634373438349C
:1000200039342A34303423340A108A100A118207F2
:10003000003446396932E732A020E331E5397300F4
:10004000533A6139F434EE332E172E000C10F4328B
:1000500063366110CE373D10A5310000D4224D2803
:100060003A102533A02120000C104937F332723AA0
:100070000001D030F339F73772320001D2326132E9
:10008000693767172E1700010C104937F630EC342A
:100090006400D030F339F737723200010C10CB32E4
:1000A000791DA01263000C10D030F339F73772328B
:1000B000A02272396F390001C327C422A012731025
:1000C000D4224D283A10253300000C00D730693A6D
:1000D0002C10E8346734203AE53670000C000C1020
:1000E000D33AF032F23AF3327210CD37E4320001F3
:1000F0000C004A3084008313000803198D28013056
:10010000F800F701F70B8228F80B81284A30F70036
:10011000F70B88288B28800B7F280800510EF039B8
:10012000F7000F30080577048800000008149828AD
:10013000081008000808F700080E0F39F80008003A
:100140008316081088100811831288100F30831648
:100150000805F03888008312081500000814000014
:100160009A207808D10008100000081400009A2096
:100170007808D00008100F30831608058800831215
:10018000510EF700F030F70577085004F8007808B2
:10019000D000D01BA6284E1C88104E1888140000D2
:1001A0000811000008104F0ED0000F30D005500885
:1001B000D1008E204F080F39D000D1008E200800CA
:1001C0002830BD000C30BE000130BF000630C0003A
:1001D0000810881008110F308316080588000810D1
:1001E000881008110F308312CA0079200130BC003A
:1001F0003C08033C031C04290330D1008E20053049
:10020000CA007920BC0AF8280230D1008E200530BF
:10021000CA007920BC013C08033C031C1B293D306B
:100220003C07840083130008C100CE014108CF00C1
:10023000A020BC0A0B298A150A1244284B0B21293D
:1002400024294030CC002529CC0101304A02CC07BA
:100250004C088038CD00CE014D08CF00A02008000A
:100260004908073A03193E290B3A03194329063A6C
:1002700003194B29023A0319512956290130CA00A2
:10028000CB001E215B29CE010130CF00A02002301F
:10029000CA0079205B290130CA000230CB001E2140
:1002A0005B29CE011030CF00A0205B290130CE00A9
:1002B0004908CF00A02008000B08BC008B13831650
:1002C00003178C170C140000000083120313BC1BCF
:1002D0008B1703170C087F390319B0290313BC00CF
:1002E00003170D080313BD0003170F080313BE0007
:1002F0003C08C90030213D0803178D0003133E0858
:1003000003178F0003130B08BF008B13831603170B
:100310008C170C140000000083120313BF1B8B17F3
:1003200003170C0D0E0D7F390319B0290313BC0000
:1003300003170D080313BD0003170F080313BE00B6
:100340003C08C90030213D0803178D0003133E0807
:1003500003178F008D0A03198F0A03135C290317F3
:10036000031308000B08BD008B13831603178C17AB
:100370000C140000000083120313BD1B8B1703181D
:10038000E92903170C087F390313BD0003170D0873
:100390000313BE0003170F080313BF003D08C90075
:1003A00030213E0803178D0003133F0803178F0009
:1003B00003130B08C0008B13831603178C170C1440
:1003C0000000000083120313C01B8B17BC0BE9292C
:1003D000082A03170C0D0E0D7F390313BD000317F8
:1003E0000D080313BE0003170F080313BF003D08D9
:1003F000C90030213E0803178D0003133F0803177F
:100400008F008D0A03198F0A03100313BC0BB22946
:1004100008008A150A1285288E30F7003D08F8007A
:100420003C08F900FA01F808031D202A7908F800B1
:10043000F9010830F702F808031D202AF701282ADD
:100440000310F81B272AF90DF80DF703202AF813DB
:100450008A150A129A2840080319F02ACC00440889
:100460000319F02ACC02031C3A2A7F30CC07031868
:10047000F02A402A8130CC02031CF02A0319F02A0A
:100480004C08F700F801F901FA01CB014108CA0054
:10049000CA174208C9004308C8001930CC004708F1
:1004A000C8020318632A0130C9020318632ACA026A
:1004B0000318632ACB020318632ACB0ACA0AC90AA3
:1004C0004708C807952A4608C90203187E2A013042
:1004D000CA0203187E2ACB0203187E2ACB0ACA0A54
:1004E0004608C9074708C807031C952AC90A031DFF
:1004F000952ACA0A031D952ACB0A952A45088038F1
:10050000CA020318942A0130CB020318942ACB0A9A
:1005100045088038CA074608C907031C722ACA0A58
:10052000031D722ACB0A722A7A14CC0B982AA32AAA
:100530000310C80DC90DCA0DCB0D0310FA0DF90D2E
:10054000F80DCD0D4F2A4D1CAB2A0310F80CF90CF9
:10055000FA0CCD0CAE2AF7030319F02ACD1BD72ACB
:100560000310C80DC90DCA0DCB0D4708C8020318EA
:10057000C32A0130C9020318C32ACA020318C32AB6
:10058000CB02031CE62A4608C9020318CE2A013012
:10059000CA020318CE2ACB02031CE62A450880387B
:1005A000CA020318D72A0130CB02031CE62AFA0A32
:1005B000031DE62AF90A031DE62AF80A031DE62AA6
:1005C000F70A0319F02AF80CF90CFA0C4108CC00D0
:1005D0004508CC06CC1FEE2AF817F42AF813F42AA3
:1005E000F701F801F901FA018A150A12B22849083F
:1005F0000319672BD1004D080319672BD107031886
:10060000082B7F30D102031C672B0319672B0C2B9F
:100610008130D1070318672B5108F700F801F90161
:10062000FA014A08D500D5174B08D4004C08D3006E
:100630001830D100D201531C352B5008FA07031C87
:10064000272BF90A031D272BF80A0319D2174F0885
:10065000F907031C2E2BF80A0319D2174E08CB00FA
:10066000CB174B08F8070318D217D20DF80CF90C6A
:10067000FA0CD50CD40CD30C0310D10B1A2B01306F
:10068000F7070318672BF81B4C2BD50DFA0DF90D46
:10069000F80DF7030319672BD51F5D2BFA0A031D0D
:1006A0005D2BF90A031D5D2BF80A031D5D2BF80C69
:1006B000F90CFA0CF70A0319672B4A08D2004E0806
:1006C000D206D21F652BF8176B2BF8136B2BF70193
:1006D000F801F901FA0108004908B63CC900FA011D
:1006E0004A08CD00CA170310CA0CCB0CCC0CFA0C6C
:1006F000F90CF80CF70CC90B732BCD1F8A2BF709DB
:10070000F809F909FA09F70A0319F80A0319F90AA5
:100710000319FA0A08008318902B513084008313C0
:10072000F701F801F901FA01D101D201D301D40195
:1007300050084F044E044D040319CE2B2030D50031
:100740000310C90DCA0DCB0DCC0DD10DD20DD30D9B
:10075000D40D50085402031DB72B4F085302031D3C
:10076000B72B4E085202031DB72B4D085102031C34
:10077000C82B4D08D1024E08031C4E0FD2024F0861
:10078000031C4F0FD3025008031C500FD402031454
:10079000F70DF80DF90DFA0DD50BA02B51088000BF
:1007A000840A52088000840A53088000840A54088E
:1007B000800008000408C1004008C3000319F92B99
:1007C0003F08CC003E08CB003D08CA003C08C900E9
:1007D000D001CF012030CE008230CD00F7227A0840
:1007E000BF007908BE007808BD007708BC00C30BC5
:1007F000E02B3F08CC003E08CB003D08CA003C0877
:10080000C9006C237A08BF007908BE007808BD00D3
:100810007708BC00BF1F192CC103C116BC09BD0954
:10082000BE09BF09BC0A0319BD0A0319BE0A031990
:10083000BF0A3B30C8009A30C700CA30C600C501A5
:100840000A30C30040080319C10A83143C308400F5
:1008500083133F08CC003E08CB003D08CA003C088B
:10086000C9004808D0004708CF004608CE00450818
:10087000CD008B237808F708031D512C400A430252
:100880000319512C41080319532C0F394302031942
:100890004B2C0318832CC11B832C411B532C203061
:1008A0007F2C2030C105C11E612CC1124008031DE0
:1008B000C1037708C1002D30C90030214108F7007D
:1008C000C10140084302031D6F2C7708C1002E3080
:1008D000C90030214108F7002030C1050030303018
:1008E000C11E7F2CC1124008031DC1037708C1003F
:1008F0002D30C90030214108F700C1013030F70721
:100900007708C900302183104808CC004708CB0085
:100910004608CA004508C900D001CF01CE010A30FF
:10092000CD008B237A08C8007908C7007808C60074
:100930007708C500C30B252C8A150A12DB28BC01D9
:10094000A00A2008213C0318202D23080319AF2CEE
:10095000013A0319B52C033A0319BB2CC02CDE3025
:100960008316860083128600C02CBE308316860054
:1009700083128600C02C7E30831686008312860088
:10098000211CCC2C06081E391E3C031DCB2C21102B
:100990002208BC00A2011F2D06081E391E3C0319A7
:1009A0001A2D06080239031DD72CBD01EB2C0608B1
:1009B0000439031DDE2C0130BD00EB2C060808397C
:1009C000031DE52C0230BD00EB2C06081039031D79
:1009D000EB2C0330BD003D08BE000330BF00F70123
:1009E000F8013E0803103F18F707F70CF80CBF1882
:1009F000F707F70CF80C3F19F707F70CF80CBF19BD
:100A0000F707F70CF80C3F1AF707F70CF80CBF1AAA
:100A1000F707F70CF80C3F1BF707F70CF80CBF1B98
:100A2000F707F70CF80C230878070420F800A20059
:100A300021141F2DA30A2308033C0319A301A001BD
:100A4000FE308316860083123C08F80008003F0839
:100A5000FA003E08840083137A1883170008C20046
:100A60004108FA004008840083137A1883170008AD
:100A70004202031D522D3F08FA003E0884008313F2
:100A80007A1883178008031D482D0030F8006A2D5E
:100A90003F08FA003E08BE0A0319BF0AC00A03193C
:100AA000C10A272D3F08FA003E08840083133F182F
:100AB00083170008C2004108FA004008840083132D
:100AC00041188317000842020318682DFF30692D72
:100AD0000130F80008003D08C2003C08C10042088F
:100AE000FA004108840083137A18831780080319D9
:100AF0007D2DC10A0319C20A6F2D3F08FA003E0876
:100B0000840083137A18831780080319A12D4008E5
:100B1000003C0318A12D3E08840083133F1883175F
:100B20000008C50041088400831342188317450854
:100B30008000C10A0319C20ABE0A0319BF0AC00312
:100B40007D2D4108840083134218831780013C08DF
:100B5000F8003D08F9008A150A12CC290B08BD00DF
:100B60008B13831603178C170C14000000008312DC
:100B70000313BD1B8B170318E62D03170C087F39D1
:100B80000313BD0003170D080313BE0003170F085E
:100B90000313BF003D080C1ECB2D99003E08031720
:100BA0008D0003133F0803178F0003130B08C000C9
:100BB0008B13831603178C170C140000000083128C
:100BC0000313C01B8B17BC0BE62D062E03170C0D51
:100BD0000E0D7F390313BD0003170D080313BE006C
:100BE00003170F080313BF003D080C1EF52D9900D5
:100BF0003E0803178D0003133F0803178F008D0A6B
:100C000003198F0A03100313BC0BAE2D08008008D4
:100C100003191D2EBD010408BC003D10831B3D14AB
:100C200000080C1E112E99003C08840083133D1807
:100C30008317840A0319850A072E8A150A12FE29CA
:100C40000408C1004008C30003193F2E3F08CC0030
:100C50003E08CB003D08CA003C08C900D001CF01C6
:100C60002030CE008230CD00F7227A08BF0079080C
:100C7000BE007808BD007708BC00C30B262E3F08D5
:100C8000CC003E08CB003D08CA003C08C9006C23DC
:100C90007A08BF007908BE007808BD007708BC005C
:100CA000BF1F5F2EC103C116BC09BD09BE09BF0924
:100CB000BC0A0319BD0A0319BE0A0319BF0A3B3057
:100CC000C8009A30C700CA30C600C5010A30C30048
:100CD00040080319C10A83143C30840083133F0881
:100CE000CC003E08CB003D08CA003C08C9004808BB
:100CF000D0004708CF004608CE004508CD008B2322
:100D00007808F708031D972E400A43020319972E0F
:100D100041080319992E0F3943020319912E031824
:100D2000CD2EC11BCD2E411B992E2030C82E203038
:100D3000C105C11EA82EC1124008031DC1037708BA
:100D4000C1002D300C1EA22E99004108F700C101F0
:100D500040084302031DB72E7708C1002E300C1E39
:100D6000AF2E99004108F7002030C1050030303027
:100D7000C11EC82EC1124008031DC1037708C1005F
:100D80002D300C1EC12E99004108F700C1013030F2
:100D9000F70777080C1ECA2E990083104808CC006C
:100DA0004708CB004608CA004508C900D001CF015A
:100DB000CE010A30CD008B237A08C8007908C7001D
:100DC0007808C6007708C500C30B6B2E8A150A1277
:100DD000192A3D08C4004108C406C41FF42E03119B
:100DE0000310BD1B0314272F3D08C4004008C50095
:100DF0003C08C5020319022FC41F272F0308013A1C
:100E00008300272F4108C5003D08C50203190E2F96
:100E1000C41F272F0308013A8300272F4208C5006B
:100E20003E08C50203191A2FC41F272F0308013AD1
:100E30008300272F4308C5003F08C5020319262F4A
:100E4000C41F272F0308013A8300272F031008002F
:1010000003081F398300193083169900A630980011
:10101000903083129800B001B101FF30B200B401EA
:10102000B30183161F149F141F159F11831383127E
:10103000A0012110A201A301A401A501AB0132115D
:101040003208831687008312071132103208831684
:10105000870083120710B2103208831687008312AC
:10106000871083161F109F141F159F1583121F17BB
:101070009F1783169F1783121F1483168101FF3059
:1010800095008A118312E0288A150130CA00CB002E
:101090008A111E218A15193003178D0000308F0028
:1010A0008A1103135C218A150130CA000230CB007B
:1010B0008A111E218A15203003178D0000308F0001
:1010C0008A1103135C218A150830BC00FA30CA006B
:1010D0008A1179208A15BC0B66280C30C9008A1148
:1010E00030218A15263003178D0000308F00031041
:1010F0000C300313BC008A11B2218A152A08C900DA
:101100008A1130218A158A11092A8A1583168113BA
:1011100083121F151F198A281E08F90083161E083E
:10112000F8007908FA001E088312BC007908BD0097
:101130008A110C2A8A157A08BF007908BE0078083F
:10114000BD007708BC003F08C3003E08C2003D0850
:10115000C1003C08C000C701C601C5018030C40001
:101160008A112B2A8A157A08A9007908A80078081C
:10117000A7007708A6000130CA00CB008A111E2103
:101180008A152E3003178D0000308F0003100630B3
:101190000313BC008A11B2218A1589308400290802
:1011A000BF002808BE002708BD002608BC0002308A
:1011B000C0008A11DA2B8A152030C9008A1130212B
:1011C0008A154330C9008A1130218A152030C900A0
:1011D0008A1130218A150230CA000130CB008A11F1
:1011E0001E218A158A119F248A157808AA00AA0848
:1011F0000319E7290130CA00CB008A111E218A1584
:10120000343003178D0000308F008A1103135C21E6
:101210008A150130CA000230CB008A111E218A15BE
:10122000393003178D0000308F008A1103135C21C1
:101230008A15B5010C30BC00FA30CA008A11792039
:101240008A15BC0B1C290C30C9008A1130218A1563
:10125000AA018A119F248A157808AA000130CA00C1
:10126000CB008A111E218A153E3003178D000030F5
:101270008F008A1103135C218A15AA080319CF294C
:101280003508063C0319CF292A08233C031DA82949
:101290003130B6003230B7003330B8003430B900E6
:1012A0003530BA00BB01BF012B30BE00C101363062
:1012B000C0008A1127258A15F808031D632901300B
:1012C000B000E729A7293630B6003730B7003830EC
:1012D000B8003930B9003030BA00BB01BF012B3043
:1012E000BE00C1013630C0008A1127258A15F808D2
:1012F000031D7E290130B000E729A7290130CA006B
:10130000CB008A111E218A15443003178D0000304E
:101310008F008A1103135C218A150130CA00023044
:10132000CB008A111E218A15493003178D00003029
:101330008F008A1103135C218A150830BC00FA3033
:10134000CA008A1179208A15BC0B9F29E729CE296A
:101350004E3003178D0000308F0003100730031349
:10136000BC008A11B2218A152A08C9008A113021CD
:101370008A150430BC00FA30CA008A1179208A1517
:10138000BC0BBB29BD012B30BC00BF012A30BE0005
:101390000130C0008A116B2D8A15B50AE62935087F
:1013A000063C031DE629533003178D0000308F00E3
:1013B0008A1103135C218A150630BC00FA30CA007A
:1013C0008A1179208A15BC0BDE29E7292829300BE0
:1013D000F82A0D300C1EEA2999005C3003178D00A5
:1013E00000308F00031005300313BC008A11AE25B6
:1013F0008A152B30840083138A11072E8A155F30DB
:1014000003178D0000308F00031407300313BC0056
:101410008A11AE258A15893084002908BF00280862
:10142000BE002708BD002608BC000230C0008A119B
:10143000202E8A150D300C1E1B2A99000A300C1E16
:101440001F2A9900BC01BD012B30840083133C0886
:1014500084073D088A1114208A158000003803197A
:10146000342ABD0ABC0A242ABF01BE010C30BD00CB
:101470008430BC002908C3002808C2002708C10026
:101480002608C0008A11E9268A15031C6C2A6530DB
:1014900003178D0000308F008A1103135C218A1519
:1014A000663003178D0000308F008A1103135C2112
:1014B0008A151430BC00FA30CA008A1179208A15C6
:1014C000BC0B5B2A6E3003178D0000308F008A1131
:1014D00003135C218A15F82A2908BF002808BE00DA
:1014E0002708BD002608BC00C301C2010C30C100A2
:1014F0008430C0008A11E9268A15003003180130B3
:10150000143C0318C12A3211320883168700831253
:101510000715B21032088316870083128710321025
:10152000320883168700831207141430BC00FA3087
:10153000CA008A1179208A15BC0B972A321032080A
:101540008316870083120710B210320883168700B3
:10155000831287141430BC00FA30CA008A11792033
:101560008A15BC0BAC2AB21032088316870083128E
:101570008710321132088316870083120711B001D9
:10158000F82A3211320883168700831207153210A9
:10159000320883168700831207142830BC00FA3003
:1015A000CA008A1179208A15BC0BCF2A3210320862
:1015B0008316870083120710B21032088316870043
:1015C000831287142830BC00FA30CA008A117920AF
:1015D0008A15BC0BE42AB2103208831687008312E6
:1015E0008710321132088316870083120711B00169
:1015F00083160614831206182B2B6F3003178D00E9
:1016000000308F008A1103135C218A150C30BC0056
:10161000FA30CA008A1179208A15BC0B082B783061
:1016200003178D0000308F008A1103135C218A1587
:10163000B108031D242B3211320883168700831250
:1016400007150130B1002B2BB1013211320883167E
:0A1650008700831207118928630048
:02400E00713F00
:00000001FF
;PIC16F877
;CRC=630B  CREATED="12-Nov-19 19:27"
