:1000000004308A007D2C00000A108A100A11820731
:10001000313432343334343435343634373438349C
:1000200039342A34303423340C38F532723A6110C2
:100030006131E932723A61000C38F532723A61107E
:10004000E3327239613261000C38F532723A611074
:100050006131E932723A61000C38F532723A61105E
:10006000E3327239613261000C38F532723A611054
:10007000E3327239613261000C10F4326336611080
:10008000CE373D10A53100000C284927A0216F393B
:10009000F232633A6F000C284927A0216F39F232FF
:1000A000633A6F000C284927A024EE316F39F232F1
:1000B000633A6F008A110A129F2C44308400831324
:1000C0000008031971280130F800F701F70B6628C2
:1000D000F80B65284A30F700F70B6C286F28800B67
:1000E000632808004B0EF039F7000F30080577043D
:1000F0008800000008147C28081008000808F70091
:10010000080E0F39F800080083160810881008112F
:10011000831288100F3083160805F0388800831288
:1001200008150000081400007E207808CB00081095
:100130000000081400007E207808CA0008100F3064
:1001400083160805880083124B0EF700F030F70580
:1001500077084A04F8007808CA00CA1B8A28481C95
:100160008810481888140000081100000810490E73
:10017000CA000F30CA054A08CB00722049080F395F
:10018000CA00CB00722008002830C0000C30C1002B
:100190000130C2000630C3000810881008110F306B
:1001A0008316080588000810881008110F30831284
:1001B000C4005D200130BF003F08033C031CE82859
:1001C0000330CB0072200530C4005D20BF0ADC285C
:1001D0000230CB0072200530C4005D20BF013F0813
:1001E000033C031CFF2840303F07840083130008B2
:1001F000C400C8014408C9008420BF0AEF288A113E
:100200000A12A02C8E30F7004008F8003F08F900D1
:10021000FA01F808031D16297908F800F9010830D9
:10022000F702F808031D1629F7011E290310F81B11
:100230001D29F90DF80DF7031629F8138A110A1272
:10024000C92C43080319E629CF0047080319E629FA
:10025000CF02031C30297F30CF070318E629362947
:100260008130CF02031CE6290319E6294F08F70065
:10027000F801F901FA01CE014408CD00CD17450877
:10028000CC004608CB001930CF004A08CB02031837
:1002900059290130CC0203185929CD0203185929D4
:1002A000CE0203185929CE0ACD0ACC0A4A08CB0738
:1002B0008B294908CC02031874290130CD02031898
:1002C0007429CE0203187429CE0ACD0A4908CC0736
:1002D0004A08CB07031C8B29CC0A031D8B29CD0AA6
:1002E000031D8B29CE0A8B2948088038CD020318BC
:1002F0008A290130CE0203188A29CE0A480880389C
:10030000CD074908CC07031C6829CD0A031D6829BD
:10031000CE0A68297A14CF0B8E2999290310CB0DA8
:10032000CC0DCD0DCE0D0310FA0DF90DF80DD00D3D
:100330004529501CA1290310F80CF90CFA0CD00C1B
:10034000A429F7030319E629D01BCD290310CB0DEF
:10035000CC0DCD0DCE0D4A08CB020318B9290130C2
:10036000CC020318B929CD020318B929CE02031C07
:10037000DC294908CC020318C4290130CD02031836
:10038000C429CE02031CDC2948088038CD0203189A
:10039000CD290130CE02031CDC29FA0A031DDC2919
:1003A000F90A031DDC29F80A031DDC29F70A0319E1
:1003B000E629F80CF90CFA0C4408CF004808CF06DF
:1003C000CF1FE429F817EA29F813EA29F701F80101
:1003D000F901FA018A110A12DF2CBF01A00A2008D4
:1003E000213C03186E2A23080319FD29013A031939
:1003F000032A033A0319092A0E2ADE3083168600DF
:10040000831286000E2ABE30831686008312860071
:100410000E2A7E308316860083128600211C1A2A3B
:1004200006081E391E3C031D192A21102208BF0090
:10043000A2016D2A06081E391E3C0319682A060807
:100440000239031D252AC001392A06080439031D73
:100450002C2A0130C000392A06080839031D332A26
:100460000230C000392A06081039031D392A03302A
:10047000C0004008C1000330C200F701F801410884
:1004800003104218F707F70CF80CC218F707F70C1F
:10049000F80C4219F707F70CF80CC219F707F70C1C
:1004A000F80C421AF707F70CF80CC21AF707F70C0A
:1004B000F80C421BF707F70CF80CC21BF707F70CF8
:1004C000F80C230878070420F800A20021146D2AF4
:1004D000A30A2308033C0319A301A001FE308316DD
:1004E000860083123F08F8008A110A12E82C450B97
:1004F0007A2A7D2A4030C6007E2AC6010130440295
:10050000C60746088038C700C8014708C9008420CC
:1005100008004308073A0319972A0B3A03199C2A43
:10052000063A0319A42A023A0319AA2AAF2A01306B
:10053000C400C5007722B42AC8010130C900842054
:100540000230C4005D20B42A0130C4000230C5006E
:100550007722B42AC8011030C9008420B42A01309F
:10056000C8004308C900842008000B08C0008B1392
:10057000831603178C170C1400000000831203135A
:10058000C01B8B170318EC2A03170C087F390313C1
:10059000C00003170D080313C10003170F0803134E
:1005A000C2004008C3008922410803178D000313CD
:1005B000420803178F0003130B08C3008B13831625
:1005C00003178C170C140000000083120313C31BC5
:1005D0008B17BF0BEC2A0B2B03170C0D0E0D7F395D
:1005E0000313C00003170D080313C10003170F08FE
:1005F0000313C2004008C3008922410803178D007D
:100600000313420803178F008D0A03198F0A031082
:100610000313BF0BB52A8A110A12F72C0B08BF006F
:100620008B13831603178C170C1400000000831221
:100630000313BF1B8B1703170C087F390319622B99
:100640000313BF0003170D080313C00003170F089F
:100650000313C1003F08C3008922400803178D001F
:100660000313410803178F0003130B08C2008B13F9
:10067000831603178C170C14000000008312031359
:10068000C21B8B1703170C0D0E0D7F390319622B3C
:100690000313BF0003170D080313C00003170F084F
:1006A0000313C1003F08C3008922400803178D00CF
:1006B0000313410803178F008D0A03198F0A0313D0
:1006C0000E2B0317031308004008C7004408C70691
:1006D000C71F6F2B03110310C01B0314A22B40086C
:1006E000C7004308C8003F08C80203197D2BC71F75
:1006F000A22B0308013A8300A22B4408C80040083B
:10070000C8020319892BC71FA22B0308013A8300D3
:10071000A22B4508C8004108C8020319952BC71F22
:10072000A22B0308013A8300A22B4608C800420806
:10073000C8020319A12BC71FA22B0308013A83008B
:10074000A22B031008002908C2002808C1002708AE
:10075000C0002608BF00C601C5012030C400833098
:10076000C3006423031CEB2B0130C4000230C5001E
:100770007722143003178D0000308F0003130E23EF
:1007800083168611831286152830BF00FA30C40004
:100790005D20BF0BC62B8316861183128611013094
:1007A000C4000230C50077221C3003178D000030D2
:1007B0008F0003130E2383168811831288152830A7
:1007C000BF00FA30C4005D20BF0BE12B83168811F7
:1007D00083128811762CC201C1012030C000833001
:1007E000BF002908C6002808C5002708C40026083D
:1007F000C30064230318FE2B031D482C2908C200E4
:100800002808C1002708C0002608BF00C601C5018E
:100810000C30C4008430C30064230318112C031D62
:10082000482C0130C4000230C50077222430031761
:100830008D0000308F0003130E2383168611831260
:1008400086151430BF00FA30C4005D20BF0B232C86
:1008500083168611831286110130C4000230C50050
:1008600077222C3003178D0000308F0003130E23E6
:1008700083168811831288151430BF00FA30C40023
:100880005D20BF0B3E2C8316881183128811762CB5
:10089000C201C1010C30C0008430BF002908C6006D
:1008A0002808C5002708C4002608C3006423031CC9
:1008B000762C343003178D0000308F0003130E2385
:1008C000E430950083168610831286100230BF0034
:1008D000FA30C4005D20BF0B682CE4309500023074
:1008E000BF00FA30C4005D20BF0B712C2A30AC0071
:1008F000AD00AE00AF00B000080003081F39830050
:10090000BC01BB0183161F149F141F159F11831375
:100910008312A0012110A201A301A401A501BD0120
:100920000130BE0083161F109F141F159F158312E0
:100930001F179F1783169F1783121F145A28C42846
:10094000831681138312AB01AB012B08093C031CF6
:10095000B92C31302B07840083132B0803178D002B
:1009600083168C130C1483120C0880000313AB0A3B
:10097000A52C1F151F19BA2C1E08F90083161E0876
:10098000F8007908FA001E088312BF007908C00039
:1009900002297A08C2007908C1007808C0007708E7
:1009A000BF007A08C6007908C5007808C400770837
:1009B000C300CA01C901C8018030C70021297A08D3
:1009C000A9007908A8007808A7007708A600ED29F3
:1009D0007808AA00AA080319112D3C3003178D00CE
:1009E00000308F0003100C300313BF00B52A2A0813
:1009F000C3008922C830C4005D202A08233C031D9F
:100A0000042D0130BD00112D2B08043C03180A2DC4
:100A1000BE01112D2C302B07840083132A0880007F
:100A2000AB0A3D0B732D2C08313C031D3A2D2D08CC
:100A3000323C031D3A2D2E08333C031D3A2D2F085E
:100A4000343C031D3A2D3008353C031D3A2D3E0B36
:100A50003A2DAB01443003178D0000308F00031393
:100A60000E230830BF00FA30C4005D20BF0B332DC9
:100A7000A323702D2C08363C031D612D2D08373C17
:100A8000031D612D2E08383C031D612D2F08393CB4
:100A9000031D612D3008303C031D612D3E0B612D7F
:100AA000AB014B3003178D0000308F0003130E2372
:100AB0000830BF00FA30C4005D20BF0B5A2DA323BD
:100AC000702D523003178D0000308F0003130E235A
:100AD000AB010830BF00FA30C4005D20BF0B6B2DA6
:0A0AE000BD010130BE00B92C630017
:02400E00723FFF
:00000001FF
;PIC16F877
;CRC=66FE  CREATED="11-Nov-19 12:47"
