:100000000A308A00552A00000A108A100A11820755
:10001000313432343334343435343634373438349C
:1000200039342A34303423340C38F532723A6110C2
:100030006131E932723A61000C38F532723A61107E
:10004000E3327239613261000C38F532723A611074
:100050006131E932723A61000C38F532723A61105E
:10006000E3327239613261000C2AE5367010613674
:10007000F4302C006937F4326E3A61392032E539B8
:10008000F03AE5392E000C2AC526501DA012661044
:100090000000C337E432BA18B219B41A2D2AE53673
:1000A000701D253343100A00C337E4323A1B371C56
:1000B00039182D2AE536701D253343100A00453CBA
:1000C000E136653720286131EC37A0236139E3340C
:1000D000611042396537E539A03CA0266139E33724
:1000E00020236539EE306E32653DA023F230EE30CC
:1000F000E43773170A000C2AC526501DA01266109B
:1001000000010C2AC526501DA012661000010C101B
:10011000F43263366110CE373D10A53100010C2852
:100120004927A0216F39F232633A6F000C28492722
:10013000A0216F39F232633A6F000C284927A024BE
:10014000EE316F39F232633A6F000C2AC526501D2A
:10015000A012661000018A150A12A82A4B308400EA
:10016000831300080319C2280130F800F701F70BC8
:10017000B728F80BB6284A30F700F70BBD28C0287F
:10018000800BB4280800520EF039F7000F30080534
:100190007704880000000814CD280810080008081B
:1001A000F700080E0F39F8000800831608108810B1
:1001B0000811831288100F3083160805F038880064
:1001C00083120815000008140000CF207808D20020
:1001D0000810000008140000CF207808D100081093
:1001E0000F308316080588008312520EF700F03096
:1001F000F70577085104F8007808D100D11BDB28F7
:100200004F1C88104F1888140000081100000810B7
:10021000500ED1000F30D1055108D200C320500834
:100220000F39D100D200C32008002830BD000C30A7
:10023000BE000130BF000630C00008108810081151
:100240000F308316080588000810881008110F3039
:100250008312CB00AE200130BC003C08033C031CE1
:1002600039290330D200C3200530CB00AE20BC0AB0
:100270002D290230D200C3200530CB00AE20BC01B6
:100280003C08033C031C50293D303C078400831389
:100290000008C100CF014108D000D520BC0A402988
:1002A0008A150A12AB2A0B08BC008B13831603179E
:1002B0008C170C140000000083120313BC1B8B1757
:1002C00003170C087F390319A9290313BC0003176E
:1002D0000D080313BD0003170F080313BE003C08ED
:1002E0000C1E702999003D0803178D0003133E086A
:1002F00003178F0003130B08BF008B13831603171C
:100300008C170C140000000083120313BF1B8B1703
:1003100003170C0D0E0D7F390319A9290313BC0017
:1003200003170D080313BD0003170F080313BE00C6
:100330003C080C1E992999003D0803178D000313F2
:100340003E0803178F008D0A03198F0A03135329E0
:10035000031703138A150A12C12A8E30F7003D08CD
:10036000F8003C08F900FA01F808031DC1297908D2
:10037000F800F9010830F702F808031DC129F70158
:10038000C9290310F81BC829F90DF80DF703C12975
:10039000F8138A150A12D32A40080319912ACC00AF
:1003A00044080319912ACC02031CDB297F30CC07B7
:1003B0000318912AE1298130CC02031C912A0319E8
:1003C000912A4C08F700F801F901FA01CB01410824
:1003D000CA00CA174208C9004308C8001930CC0037
:1003E0004708C8020318042A0130C9020318042A66
:1003F000CA020318042ACB020318042ACB0ACA0A29
:10040000C90A4708C807362A4608C90203181F2A1E
:100410000130CA0203181F2ACB0203181F2ACB0A75
:10042000CA0A4608C9074708C807031C362AC90A6A
:10043000031D362ACA0A031D362ACB0A362A450866
:100440008038CA020318352A0130CB020318352A36
:10045000CB0A45088038CA074608C907031C132A77
:10046000CA0A031D132ACB0A132A7A14CC0B392A81
:10047000442A0310C80DC90DCA0DCB0D0310FA0D87
:10048000F90DF80DCD0DF0294D1C4C2A0310F80C78
:10049000F90CFA0CCD0C4F2AF7030319912ACD1B46
:1004A000782A0310C80DC90DCA0DCB0D4708C80224
:1004B0000318642A0130C9020318642ACA02031807
:1004C000642ACB02031C872A4608C90203186F2A34
:1004D0000130CA0203186F2ACB02031C872A450881
:1004E0008038CA020318782A0130CB02031C872AFD
:1004F000FA0A031D872AF90A031D872AF80A031D31
:10050000872AF70A0319912AF80CF90CFA0C41080A
:10051000CC004508CC06CC1F8F2AF817952AF81373
:10052000952AF701F801F901FA018A150A12EB2A56
:1005300080308318C106C601C7013D08C5004108C7
:10054000C5063C080319882BC400F70040080319AE
:10055000912BC40203192D2B031CEB2A4108CA005E
:10056000CA174208C9004308C800C7010310CA0CD3
:10057000C90CC80CC70CC40BB52AC51FC22A461427
:10058000A52B4610441046163F3084008313BA2B27
:100590004612C51BD52A441CE02ACA0CC90CC80C3B
:1005A000C70CF70A0319A02BE02ACA1BE32A031081
:1005B000C70DC80DC90DCA0DF7030319A02BD52A05
:1005C00046174D2B46133D08C500C51FE92ACA171B
:1005D000992BCA13992B4008C400F7003C08C402A9
:1005E0003D08CA00CA173E08C9003F08C800C70135
:1005F0000310CA0CC90CC80CC70CC40BF72AC51FC2
:10060000042BC614A52BC6104410C6164330840014
:100610008313BA2BC612C51B172B441C222BCA0CE2
:10062000C90CC80CC70CF70A0319A02B222BCA1B34
:10063000252B0310C70DC80DC90DCA0DF7030319EB
:10064000A02B172BC6174D2BC6134108C500C51F7D
:100650002B2BCA17992BCA13992B4108CA00CA170A
:100660004208C9004308C800C51F3A2BCA134615E3
:10067000A52B4611C70144103F3084008313BA2BC9
:10068000C51B632B3D08C500441C4D2BCA0CC90C6F
:10069000C80CC70CF70A0319A02BC71F5E2BC80A8A
:1006A000031D5E2BC90A031D5E2BCA0A031D5E2BA8
:1006B000CA0CC90CC80CF70A0319A02B461BE22A66
:1006C000C61B242B822B8030CA06CA1F6B2BA52B7E
:1006D0004108C500782B3D08C500CA08031D782BCA
:1006E000C908031D782BC808031D782BF701992B27
:1006F000CA1B822B0310C70DC80DC90DCA0DF70BFD
:10070000782BA02BC51F862BCA17992BCA13992BA0
:100710004008F7004108CA004208C9004308C80061
:10072000992B3C08F7003D08CA003E08C9003F0865
:10073000C8004A08F8004908F9004808FA00D82B10
:10074000F701F801F901FA01D82BC701C809C90955
:10075000CA09C709C70A031DB32BC80A031DB32B57
:10076000C90A0319CA0A4618C12AC618032B461912
:10077000392B682B0008C807031CC42BC90A031DAA
:10078000C42BCA0A0319441484030008C907031CB4
:10079000CC2BCA0A0319441484030008801F803A32
:1007A000CA0703184414461AC82AC61A0A2B402B33
:1007B00008004108C8004508C806C81FE42B0311FB
:1007C0000310C11B0314172C4108C8004408C900BA
:1007D0004008C9020319F22BC81F172C0308013A5D
:1007E0008300172C4508C9004108C9020319FE2BD4
:1007F000C81F172C0308013A8300172C4608C900AC
:100800004208C90203190A2CC81F172C0308013A11
:100810008300172C4708C9004308C9020319162C86
:10082000C81F172C0308013A8300172C0310080077
:100830004C0B1B2C1E2C4030CD001F2CCD01013049
:100840004B02CD074D088038CE00CF014E08D000B6
:10085000D52008004A08073A0319382C0B3A031927
:100860003D2C063A0319452C023A03194B2C502C07
:100870000130CB00CC001824552CCF010130D00022
:10088000D5200230CB00AE20552C0130CB000230F9
:10089000CC001824552CCF011030D000D520552C79
:1008A0000130CF004A08D000D52008000B08BE0058
:1008B0008B13831603178C170C140000000083128F
:1008C0000313BE1B8B1703188D2C03170C087F39DD
:1008D0000313BE0003170D080313BF0003170F080F
:1008E0000313C0003E08CA002A243F0803178D00E6
:1008F0000313400803178F0003130B08C1008B1369
:10090000831603178C170C140000000083120313C6
:10091000C11B8B17BD0B8D2CAC2C03170C0D0E0DB2
:100920007F390313BE0003170D080313BF0003171D
:100930000F080313C0003E08CA002A243F0803170B
:100940008D000313400803178F008D0A03198F0AC7
:1009500003100313BD0B562C08004A0803191D2D64
:10096000D2004E0803191D2DD2070318BE2C7F306C
:10097000D202031C1D2D03191D2DC22C8130D2075C
:1009800003181D2D5208F700F801F901FA014B0870
:10099000D600D6174C08D5004D08D4001830D20028
:1009A000D301541CEB2C5108FA07031CDD2CF90A67
:1009B000031DDD2CF80A0319D3175008F907031C8F
:1009C000E42CF80A0319D3174F08CC00CC174C08B5
:1009D000F8070318D317D30DF80CF90CFA0CD60C42
:1009E000D50CD40C0310D20BD02C0130F707031810
:1009F0001D2DF81B022DD60DFA0DF90DF80DF7037C
:100A000003191D2DD61F132DFA0A031D132DF90AE4
:100A1000031D132DF80A031D132DF80CF90CFA0C05
:100A2000F70A03191D2D4B08D3004F08D306D31F17
:100A30001B2DF817212DF813212DF701F801F901CD
:100A4000FA0108004A08B63CCA00FA014B08CE0079
:100A5000CB170310CB0CCC0CCD0CFA0CF90CF80C0A
:100A6000F70CCA0B292DCE1F402DF709F809F909FB
:100A7000FA09F70A0319F80A0319F90A0319FA0A15
:100A800008008318462D523084008313F701F801C3
:100A9000F901FA01D201D301D401D5015108500462
:100AA0004F044E040319842D2030D6000310CA0DC4
:100AB000CB0DCC0DCD0DD20DD30DD40DD50D5108D0
:100AC0005502031D6D2D50085402031D6D2D4F0856
:100AD0005302031D6D2D4E085202031C7E2D4E083D
:100AE000D2024F08031C4F0FD3025008031C500FB3
:100AF000D4025108031C510FD5020314F70DF80D51
:100B0000F90DFA0DD60B562D52088000840A5308B1
:100B10008000840A54088000840A55088000080078
:100B20000408C2004108C4000319AF2D4008CD00DD
:100B30003F08CC003E08CB003D08CA00D101D001DF
:100B40002030CF008230CE00AD247A08C000790872
:100B5000BF007808BE007708BD00C40B962D400882
:100B6000CD003F08CC003E08CB003D08CA0022253E
:100B70007A08C0007908BF007808BE007708BD0079
:100B8000C01FCF2DC203C216BD09BE09BF09C009CF
:100B9000BD0A0319BE0A0319BF0A0319C00A3B3074
:100BA000C9009A30C800CA30C700C6010A30C40064
:100BB00041080319C20A83143D308400831340089E
:100BC000CD003F08CC003E08CB003D08CA004908D4
:100BD000D1004808D0004708CF004608CE00412584
:100BE0007808F708031D072E410A44020319072E4F
:100BF00042080319092E0F3944020319012E031864
:100C0000392EC21B392E421B092E2030352E2030A2
:100C1000C205C21E172EC2124108031DC203770867
:100C2000C2002D30CA002A244208F700C201410840
:100C30004402031D252E7708C2002E30CA002A2444
:100C40004208F7002030C20500303030C21E352E79
:100C5000C2124108031DC2037708C2002D30CA002A
:100C60002A244208F700C2013030F7077708CA008B
:100C70002A2483104908CD004808CC004708CB003F
:100C80004608CA00D101D001CF010A30CE0041256B
:100C90007A08C9007908C8007808C7007708C60034
:100CA000C40BDB2D0800BC01A00A2008213C03185E
:100CB000D42E23080319632E013A0319692E033A2F
:100CC00003196F2E742EDE30831686008312860081
:100CD000742EBE308316860083128600742E7E30FA
:100CE0008316860083128600211C802E06081E397A
:100CF0001E3C031D7F2E21102208BC00A201D32E12
:100D000006081E391E3C0319CE2E06080239031DA3
:100D10008B2EBD019F2E06080439031D922E013033
:100D2000BD009F2E06080839031D992E0230BD0014
:100D30009F2E06081039031D9F2E0330BD003D086D
:100D4000BE000330BF00F701F8013E0803103F1852
:100D5000F707F70CF80CBF18F707F70CF80C3F195A
:100D6000F707F70CF80CBF19F707F70CF80C3F1A48
:100D7000F707F70CF80CBF1AF707F70CF80C3F1B36
:100D8000F707F70CF80CBF1BF707F70CF80C230854
:100D900078070420F800A2002114D32EA30A230808
:100DA000033C0319A301A001FE30831686008312C1
:100DB0003C08F8008A150A120C2C0B08BD008B1396
:100DC000831603178C170C14000000008312031302
:100DD000BD1B8B1703170C087F390319312F031321
:100DE000BD0003170D080313BE0003170F080313FC
:100DF000BF003D08CA002A243E0803178D000313D4
:100E00003F0803178F0003130B08C0008B138316D2
:100E100003178C170C140000000083120313C01B6F
:100E20008B1703170C0D0E0D7F390319312F031388
:100E3000BD0003170D080313BE0003170F080313AB
:100E4000BF003D08CA002A243E0803178D00031383
:100E50003F0803178F008D0A03198F0A0313DD2E35
:100E60000317031308000B08BE008B138316031728
:100E70008C170C140000000083120313BE1B8B1789
:100E800003186B2F03170C087F390313BE000317D9
:100E90000D080313BF0003170F080313C0003E081B
:100EA0000C1E502F99003F0803178D0003134008B4
:100EB00003178F0003130B08C1008B13831603174E
:100EC0008C170C140000000083120313C11B8B1736
:100ED000BD0B6B2F8B2F03170C0D0E0D7F390313DA
:100EE000BE0003170D080313BF0003170F080313F9
:100EF000C0003E080C1E7A2F99003F0803178D0092
:100F00000313400803178F008D0A03198F0A03107B
:080F10000313BD0B332F080091
:101000000408C2004108C400031921284008CD008B
:101010003F08CC003E08CB003D08CA00D101D001FA
:101020002030CF008230CE008A11AD248A157A0894
:10103000C0007908BF007808BE007708BD00C40B67
:1010400006284008CD003F08CC003E08CB003D08F4
:10105000CA008A1122258A157A08C0007908BF00C3
:101060007808BE007708BD00C01F4328C203C2161F
:10107000BD09BE09BF09C009BD0A0319BE0A03198B
:10108000BF0A0319C00A3B30C9009A30C800CA30F1
:10109000C700C6010A30C40041080319C20A8314FC
:1010A0003D30840083134008CD003F08CC003E084B
:1010B000CB003D08CA004908D1004808D0004708C5
:1010C000CF004608CE008A1141258A157808F70816
:1010D000031D7D28410A440203197D284208031993
:1010E0007F280F394402031977280318B328C21B3D
:1010F000B328421B7F282030AE282030C205C21EF4
:101100008E28C2124108031DC2037708C2002D3089
:101110000C1E882899004208F700C20141084402C9
:10112000031D9D287708C2002E300C1E95289900BB
:101130004208F7002030C20500303030C21EAE2811
:10114000C2124108031DC2037708C2002D300C1ED5
:10115000A72899004208F700C2013030F707770846
:101160000C1EB028990083104908CD004808CC0017
:101170004708CB004608CA00D101D001CF010A3090
:10118000CE008A1141258A157A08C9007908C8005D
:101190007808C7007708C600C40B4F280800290844
:1011A000C3002808C2002708C1002608C000C701E4
:1011B000C6012030C5008330C4008A11D9238A15A6
:1011C000031C232983168811831288110130CB0058
:1011D0000230CC008A1118248A15963095001430FC
:1011E00003178D0000308F008A110313DD268A1546
:1011F0002830BD00FA30CB008A11AE208A15BD0B15
:10120000FA2895010130CB000230CC008A11182455
:101210008A1596309B001C3003178D0000308F001C
:101220008A110313DD268A152830BD00FA30CB0061
:101230008A11AE208A15BD0B1629831688118312D8
:1012400088159B01C329C301C2012030C10083302E
:10125000C0002908C7002808C6002708C5002608BE
:10126000C4008A11D9238A1503183829031D8E2931
:101270002908C3002808C2002708C1002608C000AA
:10128000C701C6010C30C5008430C4008A11D923BF
:101290008A1503184D29031D8E2983168811831280
:1012A00088110130CB000230CC008A1118248A1535
:1012B00096309500243003178D0000308F008A117E
:1012C0000313DD268A151430BD00FA30CB008A11D5
:1012D000AE208A15BD0B652995010130CB00023087
:1012E000CC008A1118248A1596309B002C300317E5
:1012F0008D0000308F008A110313DD268A1514300B
:10130000BD00FA30CB008A11AE208A15BD0B8129B1
:101310009B018316881183128815C329C301C2015A
:101320000C30C1008430C0002908C7002808C6005E
:101330002708C5002608C4008A11D9238A15031C72
:10134000C329343003178D0000308F008A11031336
:10135000DD268A150130CB000230CC008A1118241A
:101360008A153A3003178D0000308F008A1103135D
:10137000DD268A150230BD00FA30CB008A11AE207E
:101380008A15BD0BBC292A30AC00AD00AE00AF0001
:10139000B0000130CB00CC008A1118248A154330EC
:1013A00003178D0000308F00031007300313BD00BA
:1013B0008A1156248A15893084002908C00028081B
:1013C000BF002708BE002608BD000230C1008A11F8
:1013D00090258A152030CA008A112A248A150C30DB
:1013E000CB000130CC008A1118248A154330CA0082
:1013F0008A112A248A150D300C1EFC2999000A3006
:101400000C1E002A99003C0B2B2A493003178D0033
:1014100000308F00031010300313BD008A113327F2
:101420008A15893084002908C0002808BF002708D1
:10143000BE002608BD000230C100002043300C1E53
:101440001F2A990020300C1E232A99000A300C1EF6
:10145000272A9900542A3C08023C031D542A543080
:1014600003178D0000308F00031010300313BD00F0
:101470008A1133278A15893084002908C00028087A
:10148000BF002708BE002608BD000230C1000020B2
:1014900043300C1E492A990020300C1E4D2A990019
:1014A0000A300C1E512A9900080003081F398300D6
:1014B000193083169900A630980090308312980056
:1014C000B201B101FF30B30083161F149F141F1522
:1014D0009F1183138312A0012110A201A301A40173
:1014E000A501B4010130B500B601B7012A30AC0046
:1014F000AD00AE00AF00B000BB01BA01B901B80148
:1015000083161F109F101F119F1183121F179F1703
:1015100083169F1783121F14331133088316870015
:10152000831207110C309700B3103308831687001D
:10153000831287100C309D000030F80006389200AE
:10154000FF30831692008811831288158A11AB2808
:101550008A158A1115298A15831681138312AB0106
:101560000830BC00FA30CB008A11AE208A15BC0BC3
:10157000B22A5F3003178D0000308F008A110313E9
:1015800053298A151F151F19C32A1E08F90083162F
:101590001E08F8007908FA001E088312BC007908BA
:1015A000BD008A11AD298A157A08BF007908BE00EE
:1015B0007808BD007708BC007A08C3007908C2002B
:1015C0007808C1007708C000C701C601C501803096
:1015D000C4008A11CC298A157A08A9007908A800C4
:1015E0007808A7007708A60083142908BF002808F8
:1015F000BE002708BD002608BC00C301C201C1010E
:101600007F30C0008A1198228A157A08A9007908CB
:10161000A8007808A7007708A600B701871AB70ABC
:10162000B708031D1C2BB608031D192B0130B6008B
:101630001C2B360B1C2BB6013B08C3003A08C2001A
:101640003908C1003808C0002908C7002808C600AA
:101650002708C5002608C4008A11D9238A15031C4F
:101660009A2B83142908BF002808BE002708BD0054
:101670002608BC003B08C3003A08C2003908C10074
:101680003808C0008A1198228A157A08BF007908A4
:10169000BE007808BD007708BC00C301C201C101CB
:1016A0007F30C0003F08C7003E08C6003D08C500A7
:1016B0003C08C4008A11D9238A15031C9A2B0130D7
:1016C000CB00CC008A1118248A157B3003178D00BB
:1016D00000308F00031007300313BD008A11562419
:1016E0008A15893084002908C0002808BF0027080F
:1016F000BE002608BD000230C1008A1190258A155F
:101700002030CA008A112A248A150C30CB000130FF
:10171000CC008A1118248A154330CA008A112A2461
:101720008A152908BB002808BA002708B90026082E
:10173000B800032C83142908BF002808BE0027081E
:10174000BD002608BC003B08C3003A08C2003908A7
:10175000C1003808C0008A1198228A157A08BF0093
:101760007908BE007808BD007708BC003F08C300B8
:101770003E08C2003D08C1003C08C000C701C601C8
:101780008030C5007F30C4008A11D9238A15031C1C
:10179000032C0130CB00CC008A1118248A1581302B
:1017A00003178D0000308F00031007300313BD00B6
:1017B0008A1156248A15893084002908C000280817
:1017C000BF002708BE002608BD000230C1008A11F4
:1017D00090258A152030CA008A112A248A150C30D7
:1017E000CB000130CC008A1118248A154330CA007E
:1017F0008A112A248A152908BB002808BA0027085C
:10180000B9002608B800B608031DDC2C8316881121
:10181000831288158A11532E8A157808AA00AA08FF
:101820000319372C873003178D0000308F00031009
:101830000C300313BD008A1156248A152A08CA00E9
:101840008A112A248A152A08233C031D2A2C0130D8
:10185000B400372C2B08043C0318302CB501372C6E
:101860002C302B07840083132A088000AB0A340B2A
:10187000DB2C2C08313C031D662C2D08323C031D4B
:10188000662C2E08333C031D662C2F08343C031DA8
:10189000662C3008353C031D662C350B662CAB01DD
:1018A0008F3003178D0000308F008A110313DD265F
:1018B0008A150830BC00FA30CB008A11AE208A1598
:1018C000BC0B5B2C0130BC00CF20D82C2C08363C44
:1018D000031D932C2D08373C031D932C2E08383CF8
:1018E000031D932C2F08393C031D932C3008303CEA
:1018F000031D932C350B932CAB01963003178D00F1
:1019000000308F008A110313DD268A150830BC00D1
:10191000FA30CB008A11AE208A15BC0B882C02301D
:10192000BC00CF20D82C9D3003178D0000308F00D5
:101930008A110313DD268A15AB010830BC00FA308A
:10194000CB008A11AE208A15BC0B9F2C0130CB0036
:10195000CC008A1118248A15A53003178D00003099
:101960008F00031007300313BD008A1156248A1517
:10197000893084002908C0002808BF002708BE005D
:101980002608BD000230C1008A1190258A1520303A
:10199000CA008A112A248A150C30CB000130CC00F1
:1019A0008A1118248A154330CA008A112A248A15FC
:1019B000B4010130B500E22C360BE22C83168811FD
:0819C00083128811C22A6300A2
:02400E00723FFF
:00000001FF
;PIC16F877
;CRC=0990  CREATED="11-Nov-19 17:23"
