:100000000A308A00552A00000A108A100A11820755
:10001000313432343334343435343634373438349C
:1000200039342A34303423340C28F532723A6110D2
:100030006131E932723A61000C28F532723A61108E
:10004000E3327239613261000C28F532723A611084
:100050006131E932723A61000C28F532723A61106E
:10006000E3327239613261000C2AE5367010613674
:10007000F4302C006937F4326E3A61392032E539B8
:10008000F03AE5392E000C2AC526501DA012661044
:100090000000C337E432BA18B219B41A2D2AE53673
:1000A000701D253343100A00C337E4323A1B371C56
:1000B00039182D2AE536701D253343100A00453CBA
:1000C000E136653720286131EC37A0236139E3340C
:1000D000611042396537E539A03CA0266139E33724
:1000E00020236539EE306E32653DA023F230EE30CC
:1000F000E43773170A000C2AC526501DA01266109B
:1001000000010C2AC526501DA012661000010C101B
:10011000D4326336611DA01263000C284927A02148
:100120006F39F232633A6F000C284927A0216F39EA
:10013000F232633A6F000C284927A024EE316F3960
:10014000F232633A6F000C2AC526501DA0126610C9
:1001500000018A150A12A82A4B3084008313000874
:100160000319C0280130F800F701F70BB528F80B88
:10017000B4284A30F700F70BBB28BE28800BB22802
:100180000800520EF039F7000F3008057704880098
:1001900000000814CB28081008000808F700080E13
:1001A0000F39F80008008316081088100811831210
:1001B00088100F3083160805F03888008312081560
:1001C000000008140000CD207808D20008100000BC
:1001D00008140000CD207808D10008100F308316D5
:1001E000080588008312520EF700F030F7057708F3
:1001F0005104F8007808D100D11BD9284F1C881071
:100200004F1888140000081100000810500ED1008B
:100210000F30D1055108D200C12050080F39D1004C
:10022000D200C12008002830BD000C30BE000130D3
:10023000BF000630C0000810881008110F30831668
:10024000080588000810881008110F308312CB00B1
:10025000AC200130BC003C08033C031C37290330B0
:10026000D200C1200530CB00AC20BC0A2B290230C3
:10027000D200C1200530CB00AC20BC013C08033CBF
:10028000031C4E293D303C07840083130008C10045
:10029000CF014108D000D320BC0A3E298A150A129A
:1002A000AB2A0B08BC008B13831603178C170C1496
:1002B0000000000083120313BC1B8B1703170C08EC
:1002C0007F390319A7290313BC0003170D08031373
:1002D000BD0003170F080313BE003C080C1E6E2957
:1002E00099003D0803178D0003133E0803178F0084
:1002F00003130B08BF008B13831603178C170C1402
:100300000000000083120313BF1B8B1703170C0D93
:100310000E0D7F390319A7290313BC0003170D081D
:100320000313BD0003170F080313BE003C080C1E87
:10033000972999003D0803178D0003133E08031702
:100340008F008D0A03198F0A031351290317031312
:100350008A150A12C12A8E30F7003D08F8003C08C1
:10036000F900FA01F808031DBF297908F800F9011E
:100370000830F702F808031DBF29F701C729031049
:10038000F81BC629F90DF80DF703BF29F8138A15D4
:100390000A12D32A400803198F2ACC0044080319F3
:1003A0008F2ACC02031CD9297F30CC0703188F2A4F
:1003B000DF298130CC02031C8F2A03198F2A4C08B5
:1003C000F700F801F901FA01CB014108CA00CA1788
:1003D0004208C9004308C8001930CC004708C802C9
:1003E0000318022A0130C9020318022ACA0203189C
:1003F000022ACB020318022ACB0ACA0AC90A4708F2
:10040000C807342A4608C90203181D2A0130CA0247
:1004100003181D2ACB0203181D2ACB0ACA0A460854
:10042000C9074708C807031C342AC90A031D342A10
:10043000CA0A031D342ACB0A342A45088038CA0266
:100440000318332A0130CB020318332ACB0A45089C
:100450008038CA074608C907031C112ACA0A031DA7
:10046000112ACB0A112A7A14CC0B372A422A0310FC
:10047000C80DC90DCA0DCB0D0310FA0DF90DF80DFD
:10048000CD0DEE294D1C4A2A0310F80CF90CFA0C7C
:10049000CD0C4D2AF70303198F2ACD1B762A0310A2
:1004A000C80DC90DCA0DCB0D4708C8020318622A32
:1004B0000130C9020318622ACA020318622ACB0259
:1004C000031C852A4608C90203186D2A0130CA0296
:1004D00003186D2ACB02031C852A45088038CA02FE
:1004E0000318762A0130CB02031C852AFA0A031D61
:1004F000852AF90A031D852AF80A031D852AF70AA9
:1005000003198F2AF80CF90CFA0C4108CC004508A5
:10051000CC06CC1F8D2AF817932AF813932AF701DB
:10052000F801F901FA018A150A12EB2A80308318C2
:10053000C106C601C7013D08C5004108C5063C0803
:100540000319862BC400F700400803198F2BC4023F
:1005500003192B2B031CE92A4108CA00CA174208B9
:10056000C9004308C800C7010310CA0CC90CC80C55
:10057000C70CC40BB32AC51FC02A4614A32B4610B0
:10058000441046163F3084008313B82B4612C51B17
:10059000D32A441CDE2ACA0CC90CC80CC70CF70AA3
:1005A00003199E2BDE2ACA1BE12A0310C70DC80DB2
:1005B000C90DCA0DF70303199E2BD32A46174B2BDF
:1005C00046133D08C500C51FE72ACA17972BCA1353
:1005D000972B4008C400F7003C08C4023D08CA003D
:1005E000CA173E08C9003F08C800C7010310CA0C5B
:1005F000C90CC80CC70CC40BF52AC51F022BC614A6
:10060000A32BC6104410C616433084008313B82BA6
:10061000C612C51B152B441C202BCA0CC90CC80CB8
:10062000C70CF70A03199E2B202BCA1B232B031080
:10063000C70DC80DC90DCA0DF70303199E2B152B45
:10064000C6174B2BC6134108C500C51F292BCA1757
:10065000972BCA13972B4108CA00CA174208C90032
:100660004308C800C51F382BCA134615A32B4611D3
:10067000C70144103F3084008313B82BC51B612B86
:100680003D08C500441C4B2BCA0CC90CC80CC70C38
:10069000F70A03199E2BC71F5C2BC80A031D5C2B8E
:1006A000C90A031D5C2BCA0A031D5C2BCA0CC90CAA
:1006B000C80CF70A03199E2B461BE02AC61B222BE7
:1006C000802B8030CA06CA1F692BA32B4108C500A6
:1006D000762B3D08C500CA08031D762BC908031DEB
:1006E000762BC808031D762BF701972BCA1B802B8E
:1006F0000310C70DC80DC90DCA0DF70B762B9E2B25
:10070000C51F842BCA17972BCA13972B4008F700D5
:100710004108CA004208C9004308C800972B3C089A
:10072000F7003D08CA003E08C9003F08C8004A0853
:10073000F8004908F9004808FA00D62BF701F8013B
:10074000F901FA01D62BC701C809C909CA09C709A5
:10075000C70A031DB12BC80A031DB12BC90A03190F
:10076000CA0A4618BF2AC618012B4619372B662B12
:100770000008C807031CC22BC90A031DC22BCA0AE2
:100780000319441484030008C907031CCA2BCA0AAE
:100790000319441484030008801F803ACA07031811
:1007A0004414461AC62AC61A082B3E2B08004108D4
:1007B000C8004508C806C81FE22B03110310C11B5F
:1007C0000314152C4108C8004408C9004008C90298
:1007D0000319F02BC81F152C0308013A8300152CB0
:1007E0004508C9004108C9020319FC2BC81F152C74
:1007F0000308013A8300152C4608C9004208C902C3
:100800000319082CC81F152C0308013A8300152C66
:100810004708C9004308C9020319142CC81F152C26
:100820000308013A8300152C031008004C0B192C07
:100830001C2C4030CD001D2CCD0101304B02CD07CA
:100840004D088038CE00CF014E08D000D3200800DC
:100850004A08073A0319362C0B3A03193B2C063A7F
:100860000319432C023A0319492C4E2C0130CB00BA
:10087000CC001624532CCF010130D000D3200230FD
:10088000CB00AC20532C0130CB000230CC0016241E
:10089000532CCF011030D000D320532C0130CF0087
:1008A0004A08D000D32008000B08BE008B13831623
:1008B00003178C170C140000000083120313BE1BD7
:1008C0008B1703188B2C03170C087F390313BE00FA
:1008D00003170D080313BF0003170F080313C0000D
:1008E0003E08CA0028243F0803178D000313400860
:1008F00003178F0003130B08C1008B138316031714
:100900008C170C140000000083120313C11B8B17FB
:10091000BD0B8B2CAA2C03170C0D0E0D7F39031366
:10092000BE0003170D080313BF0003170F080313BE
:10093000C0003E08CA0028243F0803178D00031397
:10094000400803178F008D0A03198F0A0310031341
:10095000BD0B542C08004A0803191B2DD2004E0869
:1009600003191B2DD2070318BC2C7F30D202031CA5
:100970001B2D03191B2DC02C8130D20703181B2DF2
:100980005208F700F801F901FA014B08D600D61712
:100990004C08D5004D08D4001830D200D301541CA7
:1009A000E92C5108FA07031CDB2CF90A031DDB2C88
:1009B000F80A0319D3175008F907031CE22CF80AA8
:1009C0000319D3174F08CC00CC174C08F8070318AD
:1009D000D317D30DF80CF90CFA0CD60CD50CD40C9B
:1009E0000310D20BCE2C0130F70703181B2DF81B78
:1009F000002DD60DFA0DF90DF80DF70303191B2D77
:100A0000D61F112DFA0A031D112DF90A031D112DF0
:100A1000F80A031D112DF80CF90CFA0CF70A03194A
:100A20001B2D4B08D3004F08D306D31F192DF817E1
:100A30001F2DF8131F2DF701F801F901FA01080025
:100A40004A08B63CCA00FA014B08CE00CB17031087
:100A5000CB0CCC0CCD0CFA0CF90CF80CF70CCA0B27
:100A6000272DCE1F3E2DF709F809F909FA09F70AD3
:100A70000319F80A0319F90A0319FA0A0800831876
:100A8000442D523084008313F701F801F901FA0173
:100A9000D201D301D401D501510850044F044E04B2
:100AA0000319822D2030D6000310CA0DCB0DCC0DBA
:100AB000CD0DD20DD30DD40DD50D51085502031D0A
:100AC0006B2D50085402031D6B2D4F085302031D5C
:100AD0006B2D4E085202031C7C2D4E08D2024F088B
:100AE000031C4F0FD3025008031C500FD4025108AF
:100AF000031C510FD5020314F70DF80DF90DFA0D73
:100B0000D60B542D52088000840A53088000840AB2
:100B100054088000840A5508800008000408C200B8
:100B20004108C4000319AD2D4008CD003F08CC009A
:100B30003E08CB003D08CA00D101D0012030CF00D3
:100B40008230CE00AB247A08C0007908BF00780854
:100B5000BE007708BD00C40B942D4008CD003F08AF
:100B6000CC003E08CB003D08CA0020257A08C00012
:100B70007908BF007808BE007708BD00C01FCD2DE2
:100B8000C203C216BD09BE09BF09C009BD0A0319C7
:100B9000BE0A0319BF0A0319C00A3B30C9009A30C4
:100BA000C800CA30C700C6010A30C4004108031992
:100BB000C20A83143D30840083134008CD003F08EF
:100BC000CC003E08CB003D08CA004908D1004808C7
:100BD000D0004708CF004608CE003F257808F70828
:100BE000031D052E410A44020319052E420803196C
:100BF000072E0F3944020319FF2D0318372EC21B8D
:100C0000372E421B072E2030332E2030C205C21E45
:100C1000152EC2124108031DC2037708C2002D30F1
:100C2000CA0028244208F700C20141084402031DFB
:100C3000232E7708C2002E30CA0028244208F7006D
:100C40002030C20500303030C21E332EC21241089F
:100C5000031DC2037708C2002D30CA0028244208B1
:100C6000F700C2013030F7077708CA002824831044
:100C70004908CD004808CC004708CB004608CA0008
:100C8000D101D001CF010A30CE003F257A08C9003A
:100C90007908C8007808C7007708C600C40BD92DAA
:100CA0000800BC01A00A2008213C0318D22E23080A
:100CB0000319612E013A0319672E033A03196D2EA9
:100CC000722EDE308316860083128600722EBE30AE
:100CD0008316860083128600722E7E30831686006D
:100CE00083128600211C7E2E06081E391E3C031D21
:100CF0007D2E21102208BC00A201D12E06081E392B
:100D00001E3C0319CC2E06080239031D892EBD0195
:100D10009D2E06080439031D902E0130BD009D2E26
:100D200006080839031D972E0230BD009D2E0608C7
:100D30001039031D9D2E0330BD003D08BE00033059
:100D4000BF00F701F8013E0803103F18F707F70C42
:100D5000F80CBF18F707F70CF80C3F19F707F70C5A
:100D6000F80CBF19F707F70CF80C3F1AF707F70C48
:100D7000F80CBF1AF707F70CF80C3F1BF707F70C36
:100D8000F80CBF1BF707F70CF80C230878070420B2
:100D9000F800A2002114D12EA30A2308033C031952
:100DA000A301A001FE308316860083123C08F800E0
:100DB0008A150A120C2C0B08BD008B13831603171F
:100DC0008C170C140000000083120313BD1B8B173B
:100DD00003170C087F3903192F2F0313BD000317C6
:100DE0000D080313BE0003170F080313BF003D08CF
:100DF000CA0028243E0803178D0003133F08031779
:100E00008F0003130B08C0008B13831603178C1776
:100E10000C140000000083120313C01B8B17031770
:100E20000C0D0E0D7F3903192F2F0313BD0003176F
:100E30000D080313BE0003170F080313BF003D087E
:100E4000CA0028243E0803178D0003133F08031728
:100E50008F008D0A03198F0A0313DB2E0317031368
:100E600008000B08BE008B13831603178C170C1495
:100E70000000000083120313BE1B8B170318692F99
:100E800003170C087F390313BE0003170D08031363
:100E9000BF0003170F080313C0003E080C1E4E2F9F
:100EA00099003F0803178D000313400803178F00B4
:100EB00003130B08C1008B13831603178C170C1434
:100EC0000000000083120313C11B8B17BD0B692F99
:100ED000892F03170C0D0E0D7F390313BE00031766
:100EE0000D080313BF0003170F080313C0003E08CB
:100EF0000C1E782F99003F0803178D00031340083C
:100F000003178F008D0A03198F0A03100313BD0BFB
:040F1000312F080075
:101000000408C2004108C400031921284008CD008B
:101010003F08CC003E08CB003D08CA00D101D001FA
:101020002030CF008230CE008A11AB248A157A0896
:10103000C0007908BF007808BE007708BD00C40B67
:1010400006284008CD003F08CC003E08CB003D08F4
:10105000CA008A1120258A157A08C0007908BF00C5
:101060007808BE007708BD00C01F4328C203C2161F
:10107000BD09BE09BF09C009BD0A0319BE0A03198B
:10108000BF0A0319C00A3B30C9009A30C800CA30F1
:10109000C700C6010A30C40041080319C20A8314FC
:1010A0003D30840083134008CD003F08CC003E084B
:1010B000CB003D08CA004908D1004808D0004708C5
:1010C000CF004608CE008A113F258A157808F70818
:1010D000031D7D28410A440203197D284208031993
:1010E0007F280F394402031977280318B328C21B3D
:1010F000B328421B7F282030AE282030C205C21EF4
:101100008E28C2124108031DC2037708C2002D3089
:101110000C1E882899004208F700C20141084402C9
:10112000031D9D287708C2002E300C1E95289900BB
:101130004208F7002030C20500303030C21EAE2811
:10114000C2124108031DC2037708C2002D300C1ED5
:10115000A72899004208F700C2013030F707770846
:101160000C1EB028990083104908CD004808CC0017
:101170004708CB004608CA00D101D001CF010A3090
:10118000CE008A113F258A157A08C9007908C8005F
:101190007808C7007708C600C40B4F280800290844
:1011A000C3002808C2002708C1002608C000C701E4
:1011B000C6012030C5008330C4008A11D7238A15A8
:1011C000031C232983168811831288110130CB0058
:1011D0000230CC008A1116248A15963095001430FE
:1011E00003178D0000308F008A110313DB268A1548
:1011F0002830BD00FA30CB008A11AC208A15BD0B17
:10120000FA2895010130CB000230CC008A11162457
:101210008A1596309B001C3003178D0000308F001C
:101220008A110313DB268A152830BD00FA30CB0063
:101230008A11AC208A15BD0B1629831688118312DA
:1012400088159B01C329C301C2012030C10083302E
:10125000C0002908C7002808C6002708C5002608BE
:10126000C4008A11D7238A1503183829031D8E2933
:101270002908C3002808C2002708C1002608C000AA
:10128000C701C6010C30C5008430C4008A11D723C1
:101290008A1503184D29031D8E2983168811831280
:1012A00088110130CB000230CC008A1116248A1537
:1012B00096309500243003178D0000308F008A117E
:1012C0000313DB268A151430BD00FA30CB008A11D7
:1012D000AC208A15BD0B652995010130CB00023089
:1012E000CC008A1116248A1596309B002C300317E7
:1012F0008D0000308F008A110313DB268A1514300D
:10130000BD00FA30CB008A11AC208A15BD0B8129B3
:101310009B018316881183128815C329C301C2015A
:101320000C30C1008430C0002908C7002808C6005E
:101330002708C5002608C4008A11D7238A15031C74
:10134000C329343003178D0000308F008A11031336
:10135000DB268A150130CB000230CC008A1116241E
:101360008A153A3003178D0000308F008A1103135D
:10137000DB268A150230BD00FA30CB008A11AC2082
:101380008A15BD0BBC292A30AC00AD00AE00AF0001
:10139000B0000130CB00CC008A1116248A154330EE
:1013A00003178D0000308F00031007300313BD00BA
:1013B0008A1154248A15893084002908C00028081D
:1013C000BF002708BE002608BD000230C1008A11F8
:1013D0008E258A152030CA008A1128248A150C30DF
:1013E000CB000130CC008A1116248A154330CA0084
:1013F0008A1128248A150D300C1EFC2999000A3008
:101400000C1E002A99003C0B2B2A493003178D0033
:1014100000308F00031010300313BD008A113127F4
:101420008A15893084002908C0002808BF002708D1
:10143000BE002608BD000230C100002043300C1E53
:101440001F2A990020300C1E232A99000A300C1EF6
:10145000272A9900542A3C08023C031D542A543080
:1014600003178D0000308F00031010300313BD00F0
:101470008A1131278A15893084002908C00028087C
:10148000BF002708BE002608BD000230C1000020B2
:1014900043300C1E492A990020300C1E4D2A990019
:1014A0000A300C1E512A9900080003081F398300D6
:1014B000193083169900A630980090308312980056
:1014C000B201B101FF30B30083161F149F141F1522
:1014D0009F1183138312A0012110A201A301A40173
:1014E000A501B4010130B500B601B7012A30AC0046
:1014F000AD00AE00AF00B000BB01BA01B901B80148
:1015000083161F109F101F119F1183121F179F1703
:1015100083169F1783121F14331133088316870015
:10152000831207110C309700B3103308831687001D
:10153000831287100C309D000030F80006389200AE
:10154000FF30831692008811831288158A11A9280A
:101550008A158A1113298A15831681138312AB0108
:101560000830BC00FA30CB008A11AC208A15BC0BC5
:10157000B22A5F3003178D0000308F008A110313E9
:1015800051298A151F151F19C32A1E08F900831631
:101590001E08F8007908FA001E088312BC007908BA
:1015A000BD008A11AB298A157A08BF007908BE00F0
:1015B0007808BD007708BC007A08C3007908C2002B
:1015C0007808C1007708C000C701C601C501803096
:1015D000C4008A11CA298A157A08A9007908A800C6
:1015E0007808A7007708A60083142908BF002808F8
:1015F000BE002708BD002608BC00C301C201C1010E
:101600007F30C0008A1196228A157A08A9007908CD
:10161000A8007808A7007708A600B701871AB70ABC
:10162000B708031D1C2BB608031D192B0130B6008B
:101630001C2B360B1C2BB6013B08C3003A08C2001A
:101640003908C1003808C0002908C7002808C600AA
:101650002708C5002608C4008A11D7238A15031C51
:101660009A2B83142908BF002808BE002708BD0054
:101670002608BC003B08C3003A08C2003908C10074
:101680003808C0008A1196228A157A08BF007908A6
:10169000BE007808BD007708BC00C301C201C101CB
:1016A0007F30C0003F08C7003E08C6003D08C500A7
:1016B0003C08C4008A11D7238A15031C9A2B0130D9
:1016C000CB00CC008A1116248A157B3003178D00BD
:1016D00000308F00031007300313BD008A1154241B
:1016E0008A15893084002908C0002808BF0027080F
:1016F000BE002608BD000230C1008A118E258A1561
:101700002030CA008A1128248A150C30CB00013001
:10171000CC008A1116248A154330CA008A11282465
:101720008A152908BB002808BA002708B90026082E
:10173000B800032C83142908BF002808BE0027081E
:10174000BD002608BC003B08C3003A08C2003908A7
:10175000C1003808C0008A1196228A157A08BF0095
:101760007908BE007808BD007708BC003F08C300B8
:101770003E08C2003D08C1003C08C000C701C601C8
:101780008030C5007F30C4008A11D7238A15031C1E
:10179000032C0130CB00CC008A1116248A1581302D
:1017A00003178D0000308F00031007300313BD00B6
:1017B0008A1154248A15893084002908C000280819
:1017C000BF002708BE002608BD000230C1008A11F4
:1017D0008E258A152030CA008A1128248A150C30DB
:1017E000CB000130CC008A1116248A154330CA0080
:1017F0008A1128248A152908BB002808BA0027085E
:10180000B9002608B800B608031DDC2C8316881121
:10181000831288158A11512E8A157808AA00AA0801
:101820000319372C873003178D0000308F00031009
:1018300009300313BD008A1154248A152A08CA00EE
:101840008A1128248A152A08233C031D2A2C0130DA
:10185000B400372C2B08043C0318302CB501372C6E
:101860002C302B07840083132A088000AB0A340B2A
:10187000DB2C2C08313C031D662C2D08323C031D4B
:10188000662C2E08333C031D662C2F08343C031DA8
:10189000662C3008353C031D662C350B662CAB01DD
:1018A0008D3003178D0000308F008A110313DB2663
:1018B0008A150830BC00FA30CB008A11AC208A159A
:1018C000BC0B5B2C0130BC00CF20D82C2C08363C44
:1018D000031D932C2D08373C031D932C2E08383CF8
:1018E000031D932C2F08393C031D932C3008303CEA
:1018F000031D932C350B932CAB01943003178D00F3
:1019000000308F008A110313DB268A150830BC00D3
:10191000FA30CB008A11AC208A15BC0B882C02301F
:10192000BC00CF20D82C9B3003178D0000308F00D7
:101930008A110313DB268A15AB010830BC00FA308C
:10194000CB008A11AC208A15BC0B9F2C0130CB0038
:10195000CC008A1116248A15A33003178D0000309D
:101960008F00031007300313BD008A1154248A1519
:10197000893084002908C0002808BF002708BE005D
:101980002608BD000230C1008A118E258A1520303C
:10199000CA008A1128248A150C30CB000130CC00F3
:1019A0008A1116248A154330CA008A1128248A1500
:1019B000B4010130B500E22C360BE22C83168811FD
:0819C00083128811C22A6300A2
:02400E00723FFF
:00000001FF
;PIC16F877
;CRC=940A  CREATED="11-Nov-19 17:49"
