:1000000008308A00002800000A108A100A118207AE
:10001000313432343334343435343634373438349C
:1000200039342A34303423340C38F532723A6110C2
:100030006131E932723A61000C38F532723A61107E
:10004000E3327239613261000C38F532723A611074
:100050006131E932723A61000C38F532723A61105E
:10006000E3327239613261000C2AE5367010613674
:10007000F4302C006937F4326E3A61392032E539B8
:10008000F03AE5392E000C2AC526501DA012661044
:1000900000000C2AC526501DA012661000010C2A73
:1000A000C526501DA012661000010C10F4326336F4
:1000B0006110CE373D10A53100010C284927A02141
:1000C0006F39F232633A6F000C284927A0216F394B
:1000D000F232633A6F000C284927A024EE316F39C1
:1000E000F232633A6F000C2AC526501DA01266102A
:1000F00000018A150A124B284A3084008313000835
:10010000031990280130F800F701F70B8528F80B48
:1001100084284A30F700F70B8B288E28800B822822
:100120000800510EF039F7000F30080577048800F9
:10013000000008149B28081008000808F700080EA3
:100140000F39F80008008316081088100811831270
:1001500088100F3083160805F038880083120815C0
:100160000000081400009D207808D100081000004D
:10017000081400009D207808D00008100F30831666
:10018000080588008312510EF700F030F705770854
:100190005004F8007808D000D01BA9284E1C881005
:1001A0004E18881400000811000008104F0ED000EF
:1001B0000F30D0055008D10091204F080F39D000E2
:1001C000D100912008002830BD000C30BE00013065
:1001D000BF000630C0000810881008110F308316C9
:1001E000080588000810881008110F308312CA0013
:1001F0007C200130BC003C08033C031C0729033071
:10020000D10091200530CA007C20BC0AFB280230B6
:10021000D10091200530CA007C20BC013C08033C81
:10022000031C1E293D303C07840083130008C100D5
:10023000CE014108CF00A320BC0A0E298A150A125C
:100240004E288E30F7003D08F8003C08F900FA010E
:10025000F808031D35297908F800F9010830F7027C
:10026000F808031D3529F7013D290310F81B3C2927
:10027000F90DF80DF7033529F8138A150A126428C9
:1002800040080319052ACC0044080319052ACC02AA
:10029000031C4F297F30CC070318052A55298130CC
:1002A000CC02031C052A0319052A4C08F700F801A3
:1002B000F901FA01CB014108CA00CA174208C90076
:1002C0004308C8001930CC004708C8020318782931
:1002D0000130C90203187829CA0203187829CB0211
:1002E00003187829CB0ACA0AC90A4708C807AA29E5
:1002F0004608C902031893290130CA02031893293A
:10030000CB0203189329CB0ACA0A4608C907470833
:10031000C807031CAA29C90A031DAA29CA0A031D62
:10032000AA29CB0AAA2945088038CA020318A92994
:100330000130CB020318A929CB0A45088038CA0727
:100340004608C907031C8729CA0A031D8729CB0A47
:1003500087297A14CC0BAD29B8290310C80DC90D13
:10036000CA0DCB0D0310FA0DF90DF80DCD0D642952
:100370004D1CC0290310F80CF90CFA0CCD0CC32944
:10038000F7030319052ACD1BEC290310C80DC90D6D
:10039000CA0DCB0D4708C8020318D8290130C9027D
:1003A0000318D829CA020318D829CB02031CFB2939
:1003B0004608C9020318E3290130CA020318E329D9
:1003C000CB02031CFB2945088038CA020318EC291C
:1003D0000130CB02031CFB29FA0A031DFB29F90A91
:1003E000031DFB29F80A031DFB29F70A0319052A37
:1003F000F80CF90CFA0C4108CC004508CC06CC1FCF
:10040000032AF817092AF813092AF701F801F90154
:10041000FA018A150A127C284108C8004508C80656
:10042000C81F172A03110310C11B03144A2A4108CD
:10043000C8004408C9004008C9020319252AC81F7A
:100440004A2A0308013A83004A2A4508C90041089C
:10045000C9020319312AC81F4A2A0308013A830036
:100460004A2A4608C9004208C90203193D2AC81F82
:100470004A2A0308013A83004A2A4708C900430868
:10048000C9020319492AC81F4A2A0308013A8300EE
:100490004A2A0310080080308318C106C601C7012C
:1004A0003D08C5004108C5063C0803193B2BC400A4
:1004B000F70040080319442BC4020319E02A031C67
:1004C0009E2A4108CA00CA174208C9004308C8004A
:1004D000C7010310CA0CC90CC80CC70CC40B682A8E
:1004E000C51F752A4614582B4610441046163F3037
:1004F000840083136D2B4612C51B882A441C932A43
:10050000CA0CC90CC80CC70CF70A0319532B932A41
:10051000CA1B962A0310C70DC80DC90DCA0DF703D3
:100520000319532B882A4617002B46133D08C50094
:10053000C51F9C2ACA174C2BCA134C2B4008C40059
:10054000F7003C08C4023D08CA00CA173E08C900AB
:100550003F08C800C7010310CA0CC90CC80CC70C5F
:10056000C40BAA2AC51FB72AC614582BC61044109C
:10057000C6164330840083136D2BC612C51BCA2ACE
:10058000441CD52ACA0CC90CC80CC70CF70A03199D
:10059000532BD52ACA1BD82A0310C70DC80DC90D65
:1005A000CA0DF7030319532BCA2AC617002BC6130B
:1005B0004108C500C51FDE2ACA174C2BCA134C2B95
:1005C0004108CA00CA174208C9004308C800C51F2D
:1005D000ED2ACA134615582B4611C70144103F3067
:1005E000840083136D2BC51B162B3D08C500441CCE
:1005F000002BCA0CC90CC80CC70CF70A0319532BE3
:10060000C71F112BC80A031D112BC90A031D112B6B
:10061000CA0A031D112BCA0CC90CC80CF70A03190E
:10062000532B461B952AC61BD72A352B8030CA066A
:10063000CA1F1E2B582B4108C5002B2B3D08C50097
:10064000CA08031D2B2BC908031D2B2BC808031D2B
:100650002B2BF7014C2BCA1B352B0310C70DC80DD4
:10066000C90DCA0DF70B2B2B532BC51F392BCA17DE
:100670004C2BCA134C2B4008F7004108CA00420813
:10068000C9004308C8004C2B3C08F7003D08CA00CD
:100690003E08C9003F08C8004A08F8004908F900A8
:1006A0004808FA008B2BF701F801F901FA018B2BAE
:1006B000C701C809C909CA09C709C70A031D662BAA
:1006C000C80A031D662BC90A0319CA0A4618742AE8
:1006D000C618B62A4619EC2A1B2B0008C807031CAB
:1006E000772BC90A031D772BCA0A03194414840304
:1006F0000008C907031C7F2BCA0A0319441484038A
:100700000008801F803ACA0703184414461A7B2A3F
:10071000C61ABD2AF32A08004B0B8F2B922B4030B0
:10072000CC00932BCC0101304A02CC074C08803816
:10073000CD00CE014D08CF00A32008004908073A9C
:100740000319AC2B0B3A0319B12B063A0319B92B39
:10075000023A0319BF2BC42B0130CA00CB008C23F3
:10076000C92BCE010130CF00A3200230CA007C206B
:10077000C92B0130CA000230CB008C23C92BCE011B
:100780001030CF00A320C92B0130CE004908CF0084
:10079000A32008000B08BD008B13831603178C17CA
:1007A0000C140000000083120313BD1B8B170318E9
:1007B000012C03170C087F390313BD0003170D0824
:1007C0000313BE0003170F080313BF003D08C90041
:1007D0009E233E0803178D0003133F0803178F0065
:1007E00003130B08C0008B13831603178C170C140C
:1007F0000000000083120313C01B8B17BC0B012CDD
:10080000202C03170C0D0E0D7F390313BD000317A9
:100810000D080313BE0003170F080313BF003D08A4
:10082000C9009E233E0803178D0003133F080317DA
:100830008F008D0A03198F0A03100313BC0BCA2BF8
:1008400008008318262C513084008313F701F80127
:10085000F901FA01D101D201D301D40150084F04AA
:100860004E044D040319642C2030D5000310C90D2B
:10087000CA0DCB0DCC0DD10DD20DD30DD40D50081A
:100880005402031D4D2C4F085302031D4D2C4E08DE
:100890005202031D4D2C4D085102031C5E2C4D08C5
:1008A000D1024E08031C4E0FD2024F08031C4F0FFB
:1008B000D3025008031C500FD4020314F70DF80D97
:1008C000F90DFA0DD50B362C51088000840A520818
:1008D0008000840A53088000840A540880000800BD
:1008E0000408C1004008C3000319022D3F08CC00D2
:1008F0003E08CB003D08CA003C08C900D001CF012A
:100900002030CE008230CD0049080319F42CD100EC
:100910004D080319F42CD1070318952C7F30D10210
:10092000031CF42C0319F42C992C8130D1070318E3
:10093000F42C5108F700F801F901FA014A08D50032
:10094000D5174B08D4004C08D3001830D100D20181
:10095000531CC22C5008FA07031CB42CF90A031DBF
:10096000B42CF80A0319D2174F08F907031CBB2C43
:10097000F80A0319D2174E08CB00CB174B08F8071B
:100980000318D217D20DF80CF90CFA0CD50CD40CB4
:10099000D30C0310D10BA72C0130F7070318F42C4C
:1009A000F81BD92CD50DFA0DF90DF80DF703031925
:1009B000F42CD51FEA2CFA0A031DEA2CF90A031DB0
:1009C000EA2CF80A031DEA2CF80CF90CFA0CF70AC9
:1009D0000319F42C4A08D2004E08D206D21FF22C7A
:1009E000F817F82CF813F82CF701F801F901FA01BF
:1009F0007A08BF007908BE007808BD007708BC00FF
:100A0000C30B762C3F08CC003E08CB003D08CA0043
:100A10003C08C9004908B63CC900FA014A08CD00A3
:100A2000CA170310CA0CCB0CCC0CFA0CF90CF80C3E
:100A3000F70CC90B112DCD1F282DF709F809F9095D
:100A4000FA09F70A0319F80A0319F90A0319FA0A45
:100A50007A08BF007908BE007808BD007708BC009E
:100A6000BF1F3F2DC103C116BC09BD09BE09BF0987
:100A7000BC0A0319BD0A0319BE0A0319BF0A3B3099
:100A8000C8009A30C700CA30C600C5010A30C3008A
:100A900040080319C10A83143C30840083133F08C3
:100AA000CC003E08CB003D08CA003C08C9004808FD
:100AB000D0004708CF004608CE004508CD002124CD
:100AC0007808F708031D772D400A43020319772D94
:100AD00041080319792D0F3943020319712D0318A9
:100AE000A92DC11BA92D411B792D2030A52D20300A
:100AF000C105C11E872DC1124008031DC10377081F
:100B0000C1002D30C9009E234108F700C1014008F3
:100B10004302031D952D7708C1002E30C9009E2386
:100B20004108F7002030C10500303030C11EA52D2E
:100B3000C1124008031DC1037708C1002D30C90050
:100B40009E234108F700C1013030F7077708C9003C
:100B50009E2383104808CC004708CB004608CA00F3
:100B60004508C900D001CF01CE010A30CD002124B3
:100B70007A08C8007908C7007808C6007708C50059
:100B8000C30B4B2D0800BC01A00A2008213C031810
:100B9000442E23080319D32D013A0319D92D033A02
:100BA0000319DF2DE42DDE308316860083128600C4
:100BB000E42DBE308316860083128600E42D7E303D
:100BC0008316860083128600211CF02D06081E392C
:100BD0001E3C031DEF2D21102208BC00A201432E54
:100BE00006081E391E3C03193E2E06080239031D55
:100BF000FB2DBD010F2E06080439031D022E013006
:100C0000BD000F2E06080839031D092E0230BD0055
:100C10000F2E06081039031D0F2E0330BD003D08AE
:100C2000BE000330BF00F701F8013E0803103F1873
:100C3000F707F70CF80CBF18F707F70CF80C3F197B
:100C4000F707F70CF80CBF19F707F70CF80C3F1A69
:100C5000F707F70CF80CBF1AF707F70CF80C3F1B57
:100C6000F707F70CF80CBF1BF707F70CF80C230875
:100C700078070420F800A2002114432EA30A2308B9
:100C8000033C0319A301A001FE30831686008312E2
:100C90003C08F8008A150A1284290B08BC008B1343
:100CA000831603178C170C14000000008312031323
:100CB000BC1B8B1703170C087F390319A12E0313D4
:100CC000BC0003170D080313BD0003170F0803131F
:100CD000BE003C08C9009E233D0803178D00031386
:100CE0003E0803178F0003130B08BF008B138316F6
:100CF00003178C170C140000000083120313BF1B92
:100D00008B1703170C0D0E0D7F390319A12E03133A
:100D1000BC0003170D080313BD0003170F080313CE
:100D2000BE003C08C9009E233D0803178D00031335
:100D30003E0803178F008D0A03198F0A03134D2EE7
:100D40000317031308002908C3002808C200270856
:100D5000C1002608C000C701C6012030C50083308D
:100D6000C4000C22031CE92E8316881183128811FB
:100D70000130CA000230CB008C239630950014302D
:100D800003178D0000308F0003134D262830BC0060
:100D9000FA30CA007C20BC0BC82E95010130CA0075
:100DA0000230CB008C2396309B001C3003178D0043
:100DB00000308F0003134D262830BC00FA30CA00E3
:100DC0007C20BC0BDE2E83168811831288159B01B4
:100DD0006F2FC301C2012030C1008330C000290839
:100DE000C7002808C6002708C5002608C4000C2232
:100DF0000318FC2E031D442F2908C3002808C20035
:100E00002708C1002608C000C701C6010C30C50074
:100E10008430C4000C2203180F2F031D442F8316A7
:100E20008811831288110130CA000230CB008C2354
:100E300096309500243003178D0000308F00031387
:100E40004D261430BC00FA30CA007C20BC0B232F86
:100E500095010130CA000230CB008C2396309B00F4
:100E60002C3003178D0000308F0003134D261430F3
:100E7000BC00FA30CA007C20BC0B392F9B018316C2
:100E80008811831288156F2FC301C2010C30C10075
:100E90008430C0002908C7002808C6002708C500FC
:100EA0002608C4000C22031C6F2F343003178D005A
:100EB00000308F0003134D260130CA000230CB00F2
:100EC0008C233A3003178D0000308F0003134D261A
:100ED0000230BC00FA30CA007C20BC0B6A2F2A30DA
:100EE000AC00AD00AE00AF00B0000130CA00CB00D6
:100EF0008C23433003178D0000308F000310073020
:100F00000313BC00CA23893084002908BF002808C5
:100F1000BE002708BD002608BC000230C0007024B7
:100F20002030C9009E230C30CA000130CB008C2336
:080F30004330C9009E230800B4
:1010000003081F398300B201B101FF30B30083161A
:101010001F149F141F159F1183138312A001211009
:10102000A201A301A401A501B4010130B500B601DC
:10103000B7012A30AC00AD00AE00AF00B000BB017C
:10104000BA01B901B80183161F109F101F119F111B
:1010500083121F179F1783169F1783121F143311B4
:10106000330883168700831207110C309700B310E2
:10107000330883168700831287100C309D000030E0
:10108000F80006389200FF30831692008811831210
:1010900088158A1179288A158A11E3288A158316FA
:1010A00081138312AB011F151F1954281E08F90064
:1010B00083161E08F8007908FA001E088312BC0087
:1010C0007908BD008A1121298A157A08BF0079089C
:1010D000BE007808BD007708BC003F08C3003E088A
:1010E000C2003D08C1003C08C000C701C601C501DF
:1010F0008030C4008A1140298A157A08A90079082D
:10110000A8007808A7007708A600B701871AB70AD1
:10111000B708031D9428B608031D91280130B600B6
:101120009428360B9428B6013B08C3003A08C20045
:101130003908C1003808C0002908C7002808C600BF
:101140002708C5002608C4008A110C228A15031C32
:10115000122983142908BF002808BE002708BD00F3
:101160002608BC003B08C3003A08C2003908C10089
:101170003808C0008A114B228A157A08BF00790806
:10118000BE007808BD007708BC00C301C201C101E0
:101190007F30C0003F08C7003E08C6003D08C500BC
:1011A0003C08C4008A110C228A15031C1229013044
:1011B000CA00CB008A118C238A15493003178D0091
:1011C00000308F00031007300313BC008A11CA23BC
:1011D0008A15893084002908BF002808BE00270826
:1011E000BD002608BC000230C0008A1170248A1598
:1011F0002030C9008A119E238A150C30CA000130A4
:10120000CB008A118C238A154330C9008A119E2392
:101210008A152908BB002808BA002708B900260843
:10122000B8007B2983142908BF002808BE002708BE
:10123000BD002608BC003B08C3003A08C2003908BC
:10124000C1003808C0008A114B228A157A08BF00F5
:101250007908BE007808BD007708BC003F08C300CD
:101260003E08C2003D08C1003C08C000C701C601DD
:101270008030C5007F30C4008A110C228A15031CFF
:101280007B290130CA00CB008A118C238A154F308C
:1012900003178D0000308F00031007300313BC00CC
:1012A0008A11CA238A15893084002908BF002808BA
:1012B000BE002708BD002608BC000230C0008A110D
:1012C00070248A152030C9008A119E238A150C309B
:1012D000CA000130CB008A118C238A154330C90023
:1012E0008A119E238A152908BB002808BA002708FE
:1012F000B9002608B800B608031D542A83168811C1
:10130000831288158A11C32D8A157808AA00AA08A5
:101310000319AF29553003178D0000308F000310DB
:101320000C300313BC008A11CA238A152A08C9008D
:101330008A119E238A152A08233C031DA229013005
:10134000B400AF292B08043C0318A829B501AF2924
:101350002C302B07840083132A088000AB0A340B3F
:10136000532A2C08313C031DDE292D08323C031D75
:10137000DE292E08333C031DDE292F08343C031DD3
:10138000DE293008353C031DDE29350BDE29AB0193
:101390005D3003178D0000308F008A1103134D2636
:1013A0008A150830BC00FA30CA008A117C208A15E0
:1013B000BC0BD3298A11A3268A15502A2C08363C47
:1013C000031D0B2A2D08373C031D0B2A2E08383C21
:1013D000031D0B2A2F08393C031D0B2A3008303C13
:1013E000031D0B2A350B0B2AAB01643003178D004C
:1013F00000308F008A1103134D268A150830BC0077
:10140000FA30CA008A117C208A15BC0B002A8A1186
:10141000A3268A15502A6B3003178D0000308F00E9
:101420008A1103134D268A15AB010830BC00FA302F
:10143000CA008A117C208A15BC0B172A0130CA0009
:10144000CB008A118C238A15733003178D0000306E
:101450008F00031007300313BC008A11CA238A15BA
:10146000893084002908BF002808BE002708BD0075
:101470002608BC000230C0008A1170248A15203072
:10148000C9008A119E238A150C30CA000130CB0096
:101490008A118C238A154330C9008A119E238A152C
:1014A000B4010130B5005A2A360B5A2A8316881126
:0814B000831288115328630028
:02400E00723FFF
:00000001FF
;PIC16F877
;CRC=4FF2  CREATED="11-Nov-19 16:29"
