:1000000004308A00732C00000A108A100A1182073B
:10001000313432343334343435343634373438349C
:1000200039342A34303423340C38F532723A6110C2
:100030006131E932723A61000C38F532723A61107E
:10004000E3327239613261000C38F532723A611074
:100050006131E932723A61000C38F532723A61105E
:10006000E3327239613261000C38F532723A611054
:10007000E3327239613261000C10F4326336611080
:10008000CE373D10A53100000C284927A0216F393B
:10009000F232633A6F000C284927A0216F39F232FF
:1000A000633A6F000C284927A024EE316F39F232F1
:1000B000633A6F008A110A12AF2C45308400831313
:1000C0000008031971280130F800F701F70B6628C2
:1000D000F80B65284A30F700F70B6C286F28800B67
:1000E000632808004C0EF039F7000F30080577043C
:1000F0008800000008147C28081008000808F70091
:10010000080E0F39F800080083160810881008112F
:10011000831288100F3083160805F0388800831288
:1001200008150000081400007E207808CC00081094
:100130000000081400007E207808CB0008100F3063
:1001400083160805880083124C0EF700F030F7057F
:1001500077084B04F8007808CB00CB1B8A28491C91
:1001600088104918881400000811000008104A0E71
:10017000CB000F30CB054B08CC0072204A080F395A
:10018000CB00CC00722008002830C1000C30C20027
:100190000130C3000630C4000810881008110F3069
:1001A0008316080588000810881008110F30831284
:1001B000C5005D200130C0004008033C031CE82856
:1001C0000330CC0072200530C5005D20C00ADC2859
:1001D0000230CC0072200530C5005D20C00140080F
:1001E000033C031CFF2841304007840083130008B0
:1001F000C500C9014508CA008420C00AEF288A1139
:100200000A12B02C8E30F7004108F8004008F900BF
:10021000FA01F808031D16297908F800F9010830D9
:10022000F702F808031D1629F7011E290310F81B11
:100230001D29F90DF80DF7031629F8138A110A1272
:10024000D92C44080319E629D00048080319E629E7
:10025000D002031C30297F30D0070318E629362945
:100260008130D002031CE6290319E6295008F70063
:10027000F801F901FA01CF014508CE00CE17460872
:10028000CD004708CC001930D0004B08CC02031831
:1002900059290130CD0203185929CE0203185929D2
:1002A000CF0203185929CF0ACE0ACD0A4B08CC0732
:1002B0008B294A08CD02031874290130CE02031895
:1002C0007429CF0203187429CF0ACE0A4A08CD0731
:1002D0004B08CC07031C8B29CD0A031D8B29CE0AA2
:1002E000031D8B29CF0A8B2949088038CE020318B9
:1002F0008A290130CF0203188A29CF0A4908803899
:10030000CE074A08CD07031C6829CE0A031D6829B9
:10031000CF0A68297A14D00B8E2999290310CC0DA5
:10032000CD0DCE0DCF0D0310FA0DF90DF80DD10D39
:100330004529511CA1290310F80CF90CFA0CD10C19
:10034000A429F7030319E629D11BCD290310CC0DED
:10035000CD0DCE0DCF0D4B08CC020318B9290130BD
:10036000CD020318B929CE020318B929CF02031C04
:10037000DC294A08CD020318C4290130CE02031833
:10038000C429CF02031CDC2949088038CE02031897
:10039000CD290130CF02031CDC29FA0A031DDC2918
:1003A000F90A031DDC29F80A031DDC29F70A0319E1
:1003B000E629F80CF90CFA0C4508D0004908D006DB
:1003C000D01FE429F817EA29F813EA29F701F80100
:1003D000F901FA018A110A12EF2CC001A00A2008C3
:1003E000213C03186E2A23080319FD29013A031939
:1003F000032A033A0319092A0E2ADE3083168600DF
:10040000831286000E2ABE30831686008312860071
:100410000E2A7E308316860083128600211C1A2A3B
:1004200006081E391E3C031D192A21102208C0008F
:10043000A2016D2A06081E391E3C0319682A060807
:100440000239031D252AC101392A06080439031D72
:100450002C2A0130C100392A06080839031D332A25
:100460000230C100392A06081039031D392A033029
:10047000C1004108C2000330C300F701F80142087F
:1004800003104318F707F70CF80CC318F707F70C1D
:10049000F80C4319F707F70CF80CC319F707F70C1A
:1004A000F80C431AF707F70CF80CC31AF707F70C08
:1004B000F80C431BF707F70CF80CC31BF707F70CF6
:1004C000F80C230878070420F800A20021146D2AF4
:1004D000A30A2308033C0319A301A001FE308316DD
:1004E000860083124008F8008A110A12F82C460B85
:1004F0007A2A7D2A4030C7007E2AC7010130450292
:10050000C70747088038C800C9014808CA008420C6
:1005100008004408073A0319972A0B3A03199C2A42
:10052000063A0319A42A023A0319AA2AAF2A01306B
:10053000C500C6007722B42AC9010130CA00842050
:100540000230C5005D20B42A0130C5000230C6006B
:100550007722B42AC9011030CA008420B42A01309D
:10056000C9004408CA00842008000B08C1008B138E
:10057000831603178C170C1400000000831203135A
:10058000C11B8B170318EC2A03170C087F390313C0
:10059000C10003170D080313C20003170F0803134C
:1005A000C3004108C4008922420803178D000313C9
:1005B000430803178F0003130B08C4008B13831623
:1005C00003178C170C140000000083120313C41BC4
:1005D0008B17C00BEC2A0B2B03170C0D0E0D7F395C
:1005E0000313C10003170D080313C20003170F08FC
:1005F0000313C3004108C4008922420803178D0079
:100600000313430803178F008D0A03198F0A031081
:100610000313C00BB52A8A110A12072D0B08C0005C
:100620008B13831603178C170C1400000000831221
:100630000313C01B8B1703170C087F390319622B98
:100640000313C00003170D080313C10003170F089D
:100650000313C2004008C4008922410803178D001B
:100660000313420803178F0003130B08C3008B13F7
:10067000831603178C170C14000000008312031359
:10068000C31B8B1703170C0D0E0D7F390319622B3B
:100690000313C00003170D080313C10003170F084D
:1006A0000313C2004008C4008922410803178D00CB
:1006B0000313420803178F008D0A03198F0A0313CF
:1006C0000E2B0317031308004108C8004508C8068D
:1006D000C81F6F2B03110310C11B0314A22B410869
:1006E000C8004408C9004008C90203197D2BC81F6F
:1006F000A22B0308013A8300A22B4508C900410838
:10070000C9020319892BC81FA22B0308013A8300D1
:10071000A22B4608C9004208C9020319952BC81F1D
:10072000A22B0308013A8300A22B4708C900430803
:10073000C9020319A12BC81FA22B0308013A830089
:10074000A22B031008002908C3002808C2002708AC
:10075000C1002608C000C701C6012030C500833093
:10076000C4006423031CEB2B0130C5000230C6001B
:100770007722143003178D0000308F0003130E23EF
:1007800083168611831286152830C000FA30C50002
:100790005D20C00BC62B8316861183128611013093
:1007A000C5000230C60077221C3003178D000030D0
:1007B0008F0003130E2383168811831288152830A7
:1007C000C000FA30C5005D20C00BE12B83168811F4
:1007D000831288116C2CC301C2012030C100833008
:1007E000C0002908C7002808C6002708C500260839
:1007F000C40064230318FE2B031D3E2C2908C300EC
:100800002808C2002708C1002608C000C701C60189
:100810000C30C5008430C40064230318112C031D60
:100820003E2C0130C5000230C600772264309500AE
:10083000243003178D0000308F0003130E23143073
:10084000C000FA30C5005D20C00B212C950101309D
:10085000C5000230C600772264309B002C3003179D
:100860008D0000308F0003130E231430C000FA30C7
:10087000C5005D20C00B372C9B016C2CC301C2014D
:100880000C30C1008430C0002908C7002808C60009
:100890002708C5002608C4006423031C6C2C3430D0
:1008A00003178D0000308F0003130E23E4309500F2
:1008B00083168610831286100230C000FA30C500FD
:1008C0005D20C00B5E2CE43095000230C000FA3091
:1008D000C5005D20C00B672C2A30AC00AD00AE0017
:1008E000AF00B000080003081F398300BC01BB0142
:1008F000FF30BD0083161F149F141F159F11831313
:100900008312A0012110A201A301A401A501BE012F
:100910000130BF0083161F109F141F159F158312EF
:100920001F179F1783169F1783121F143D113D0831
:1009300083168700831207110C309700BD103D0805
:1009400083168700831287100C309D000030F8005A
:1009500006389200FF308316920083125A28C4286A
:10096000831681138312AB01AB012B08093C031CD6
:10097000C92C31302B07840083132B0803178D00FB
:1009800083168C130C1483120C0880000313AB0A1B
:10099000B52C1F151F19CA2C1E08F90083161E0836
:1009A000F8007908FA001E088312C0007908C10017
:1009B00002297A08C3007908C2007808C1007708C4
:1009C000C0007A08C7007908C6007808C500770813
:1009D000C400CB01CA01C9018030C80021297A08AE
:1009E000A9007908A8007808A7007708A600ED29D3
:1009F0007808AA00AA080319212D3C3003178D009E
:100A000000308F0003100C300313C000B52A2A08F1
:100A1000C4008922C830C5005D202A08233C031D7C
:100A2000142D0130BE00212D2B08043C03181A2D73
:100A3000BF01212D2C302B07840083132A0880004E
:100A4000AB0A3E0B832D2C08313C031D4A2D2D088B
:100A5000323C031D4A2D2E08333C031D4A2D2F081E
:100A6000343C031D4A2D3008353C031D4A2D3F0BF5
:100A70004A2DAB01443003178D0000308F00031363
:100A80000E230830C000FA30C5005D20C00B432D96
:100A9000A323802D2C08363C031D712D2D08373CD7
:100AA000031D712D2E08383C031D712D2F08393C74
:100AB000031D712D3008303C031D712D3F0B712D2E
:100AC000AB014B3003178D0000308F0003130E2352
:100AD0000830C000FA30C5005D20C00B6A2DA3238A
:100AE000802D523003178D0000308F0003130E232A
:100AF000AB010830C000FA30C5005D20C00B7B2D73
:0A0B0000BE010130BF00C92C6300E4
:02400E00723FFF
:00000001FF
;PIC16F877
;CRC=AB95  CREATED="11-Nov-19 13:29"
