:1000000005308A00A92D00000A108A100A11820703
:10001000313432343334343435343634373438349C
:1000200039342A34303423340C38F532723A6110C2
:100030006131E932723A61000C38F532723A61107E
:10004000E3327239613261000C38F532723A611074
:100050006131E932723A61000C38F532723A61105E
:10006000E332723961326100D4224D283A10000027
:100070000C284927A024EE316F39F232633A6F0021
:100080008A110A12BC2D433084008313000803191F
:1000900057280130F800F701F70B4C28F80B4B28D4
:1000A0004A30F700F70B52285528800B49280800E2
:1000B0004A0EF039F7000F30080577048800000079
:1000C00008146228081008000808F700080E0F3905
:1000D000F800080083160810881008118312881091
:1000E0000F3083160805F0388800831208150000C9
:1000F0000814000064207808CA00081000000814E2
:10010000000064207808C90008100F308316080525
:10011000880083124A0EF700F030F705770849048B
:10012000F8007808C900C91B7028471C88104718B8
:1001300088140000081100000810480EC9000F3094
:10014000C9054908CA00582048080F39C900CA0023
:10015000582008002830B6000C30B7000130B80035
:100160000630B9000810881008110F3083160805F2
:1001700088000810881008110F308312C300432034
:100180000130B5003508033C031CCE280330CA00FB
:1001900058200530C3004320B50AC2280230CA00E7
:1001A00058200530C3004320B5013508033C031C2B
:1001B000E52836303507840083130008BA00C701EC
:1001C0003A08C8006A20B50AD5280800440BE92877
:1001D000EC284030C500ED28C50101304302C507B9
:1001E00045088038C600C7014608C8006A200800D4
:1001F0004208073A031906290B3A03190B29063A54
:1002000003191329023A031919291E290130C300C1
:10021000C400E6202329C7010130C8006A2002304B
:10022000C300432023290130C3000230C400E6206C
:100230002329C7011030C8006A2023290130C700D4
:100240004208C8006A2008000B08B5008B1383160B
:1002500003178C170C140000000083120313B51B46
:100260008B1703170C087F39031978290313B5007E
:1002700003170D080313B60003170F080313B70085
:100280003508C200F820360803178D00031337081D
:1002900003178F0003130B08B8008B138316031783
:1002A0008C170C140000000083120313B81B8B176B
:1002B00003170C0D0E0D7F39031978290313B500B0
:1002C00003170D080313B60003170F080313B70035
:1002D0003508C200F820360803178D0003133708CD
:1002E00003178F008D0A03198F0A0313242903179C
:1002F000031308008E30F7003608F8003508F900BF
:10030000FA01F808031D8E297908F800F901083070
:10031000F702F808031D8E29F70196290310F81B30
:100320009529F90DF80DF7038E29F8138A110A1291
:10033000042E390803195E2AC5003D0803195E2AF8
:10034000C502031CA8297F30C50703185E2AAE2901
:100350008130C502031C5E2A03195E2A4508F70096
:10036000F801F901FA01C4013A08C300C3173B08B8
:10037000C2003C08C1001930C5004008C102031882
:10038000D1290130C2020318D129C3020318D1298F
:10039000C4020318D129C40AC30AC20A4008C1070B
:1003A000032A3F08C2020318EC290130C3020318D4
:1003B000EC29C4020318EC29C40AC30A3F08C20787
:1003C0004008C107031C032AC20A031D032AC30AEB
:1003D000031D032AC40A032A3E088038C3020318F7
:1003E000022A0130C4020318022AC40A3E088038D7
:1003F000C3073F08C207031CE029C30A031DE02905
:10040000C40AE0297A14C50B062A112A0310C10D6B
:10041000C20DC30DC40D0310FA0DF90DF80DC60D74
:10042000BD29461C192A0310F80CF90CFA0CC60C4D
:100430001C2AF70303195E2AC61B452A0310C10DA7
:10044000C20DC30DC40D4008C1020318312A01308A
:10045000C2020318312AC3020318312AC402031C42
:10046000542A3F08C20203183C2A0130C302031871
:100470003C2AC402031C542A3E088038C3020318D5
:10048000452A0130C402031C542AFA0A031D542AC7
:10049000F90A031D542AF80A031D542AF70A0319FE
:1004A0005E2AF80CF90CFA0C3A08C5003E08C5069D
:1004B000C51F5C2AF817622AF813622AF701F801AF
:1004C000F901FA018A110A121A2E83186A2A4A308F
:1004D00084008313F701F801F901FA01CA01CB0185
:1004E000CC01CD0149084804470446040319A82A51
:1004F0002030CE000310C20DC30DC40DC50DCA0DB2
:10050000CB0DCC0DCD0D49084D02031D912A480895
:100510004C02031D912A47084B02031D912A4608ED
:100520004A02031CA22A4608CA024708031C470FB6
:10053000CB024808031C480FCC024908031C490F92
:10054000CD020314F70DF80DF90DFA0DCE0B7A2A32
:100550004A088000840A4B088000840A4C08800006
:10056000840A4D08800008000408BA003908BC005D
:100570000319462B3808C5003708C4003608C300E5
:100580003508C200C901C8012030C7008230C6004A
:1005900042080319382BCA0046080319382BCA072A
:1005A0000318D92A7F30CA02031C382B0319382BB1
:1005B000DD2A8130CA070318382B4A08F700F801F2
:1005C000F901FA014308CE00CE174408CD004508D2
:1005D000CC001830CA00CB014C1C062B4908FA0786
:1005E000031CF82AF90A031DF82AF80A0319CB1785
:1005F0004808F907031CFF2AF80A0319CB17470814
:10060000C400C4174408F8070318CB17CB0DF80C27
:10061000F90CFA0CCE0CCD0CCC0C0310CA0BEB2A47
:100620000130F7070318382BF81B1D2BCE0DFA0DE0
:10063000F90DF80DF7030319382BCE1F2E2BFA0AEC
:10064000031D2E2BF90A031D2E2BF80A031D2E2B3A
:10065000F80CF90CFA0CF70A0319382B4308CB00F5
:100660004708CB06CB1F362BF8173C2BF8133C2B37
:10067000F701F801F901FA017A08B8007908B70022
:100680007808B6007708B500BC0BBA2A3808C50050
:100690003708C4003608C3003508C2004208B63C1B
:1006A000C200FA014308C600C3170310C30CC40CF0
:1006B000C50CFA0CF90CF80CF70CC20B552BC61F25
:1006C0006C2BF709F809F909FA09F70A0319F80A6E
:1006D0000319F90A0319FA0A7A08B8007908B70069
:1006E0007808B6007708B500B81F832BBA03BA168E
:1006F000B509B609B709B809B50A0319B60A031945
:10070000B70A0319B80A3B30C1009A30C000CA309A
:10071000BF00BE010A30BC0039080319BA0A8314AD
:100720003530840083133808C5003708C400360804
:10073000C3003508C2004108C9004008C8003F088E
:10074000C7003E08C60065227808F708031DBB2BCA
:10075000390A3C020319BB2B3A080319BD2B0F3988
:100760003C020319B52B0318ED2BBA1BED2B3A1BDA
:10077000BD2B2030E92B2030BA05BA1ECB2BBA1284
:100780003908031DBA037708BA002D30C200F820DB
:100790003A08F700BA0139083C02031DD92B770843
:1007A000BA002E30C200F8203A08F7002030BA050F
:1007B00000303030BA1EE92BBA123908031DBA03D3
:1007C0007708BA002D30C200F8203A08F700BA01C5
:1007D0003030F7077708C200F82083104108C500C1
:1007E0004008C4003F08C3003E08C200C901C80158
:1007F000C7010A30C60065227A08C1007908C00026
:100800007808BF007708BE00BC0B8F2B8A110A1234
:10081000342EB501A00A2008213C03188A2C230895
:100820000319192C013A03191F2C033A0319252C1B
:100830002A2CDE3083168600831286002A2CBE30D6
:1008400083168600831286002A2C7E30831686004B
:1008500083128600211C362C06081E391E3C031DFF
:10086000352C21102208B500A201892C06081E395A
:100870001E3C0319842C06080239031D412CB601C5
:10088000552C06080439031D482C0130B600552CA0
:1008900006080839031D4F2C0230B600552C0608F7
:1008A0001039031D552C0330B6003608B70003304D
:1008B000B800F701F801370803103818F707F70CEC
:1008C000F80CB818F707F70CF80C3819F707F70CFD
:1008D000F80CB819F707F70CF80C381AF707F70CEB
:1008E000F80CB81AF707F70CF80C381BF707F70CD9
:1008F000F80CB81BF707F70CF80C2308780704204E
:10090000F800A2002114892CA30A2308033C031930
:10091000A301A001FE308316860083123508F8007B
:100920008A110A12402E3608BD003A08BD06BD1FC6
:100930009E2C03110310B61B0314D12C3608BD00E6
:100940003908BE003508BE020319AC2CBD1FD12CDE
:100950000308013A8300D12C3A08BE003608BE02D3
:100960000319B82CBD1FD12C0308013A8300D12CE8
:100970003B08BE003708BE020319C42CBD1FD12C92
:100980000308013A8300D12C3C08BE003808BE029F
:100990000319D02CBD1FD12C0308013A8300D12CA0
:1009A000031008002708B8002608B7002508B6007D
:1009B0002408B500BC01BB012030BA008330B90067
:1009C0009324031C1B2D733095008316861083120D
:1009D0008614143003178D0000308F000313242178
:1009E0000430B500FA30C3004320B50BF22C73304D
:1009F00095001C3003178D0000308F000313242155
:100A000083168610831286100430B500FA30C300B6
:100A10004320B50B062D83160510831205140230F2
:100A2000B500FA30C3004320B50B112D8316051015
:100A300083120510A82DB801B7012030B60083300D
:100A4000B5002708BC002608BB002508BA0024080A
:100A5000B900932403182E2D031D812D2708B800FB
:100A60002608B7002508B6002408B500BC01BB0164
:100A70000C30BA008430B90093240318412D031DB3
:100A8000812DAB3095000730C3000230C400E62052
:100A9000243003178D0000308F00031324218316A8
:100AA0008610831286141430B500FA30C300432038
:100AB000B50B552D0130C3000230C400E6202C30A8
:100AC00003178D0000308F00031324218316861036
:100AD000831286101430B500FA30C3004320B50BE2
:100AE0006C2D83160510831205140230B500FA3000
:100AF000C3004320B50B772D831605108312051014
:100B0000A82D2708B8002608B7002508B600240835
:100B1000B500BC01BB010C30BA008430B90093248D
:100B2000031CA82DE43095008316861083128610CE
:100B30000230B500FA30C3004320B50B9A2DE430E3
:100B400095000230B500FA30C3004320B50BA32D49
:100B5000080003081F398300A901A801FF30AA007B
:100B600083161F149F141F159F1183138312A00156
:100B70002110A201A30140288316811383122A1198
:100B80002A0883168700831207110C309700003063
:100B9000F80006389200FF30831692001F109F1055
:100BA0001F119F1183121F179F1783169F17831200
:100BB0001F140030F8001F08C73978049F00AA20CE
:100BC0000130C300C400E620343003178D0000302C
:100BD0008F00031324210230B5009630C300432058
:100BE000B50BED2DAA20AF011F151F19F52D1E08FD
:100BF000F90083161E08F8007908FA001E0883120F
:100C0000B5007908B6007A297A08B8007908B700E3
:100C10007808B6007708B5007A08BC007908BB00F0
:100C20007808BA007708B900C001BF01BE01803062
:100C3000BD0099297A08A7007908A6007808A500C0
:100C40007708A4000530C3000130C400E6208930D5
:100C500084002708B8002608B7002508B600240835
:100C6000B5000230B900B42A0C30C3000130C40012
:100C7000E6204330C200F820C830C3004320092CCE
:100C80007808AE00AE0803194C2E30302F078400D0
:100C900083132E088000AF0A2F08043C031D892E01
:100CA0003008313C031D632E3108343C031D632E94
:100CB0003208363C031D632E3308393C031D632E76
:100CC000AF01D224892E3008363C031D7A2E31081C
:100CD000373C031D7A2E3208383C031D7A2E330828
:100CE000393C031D7A2E3408303C031D7A2EAF01A7
:100CF000D224892E383003178D0000308F00031363
:100D00002421AF010830B500FA30C3004320B50BF1
:0A0D1000842EF42D0030F80063007B
:02400E00723FFF
:00000001FF
;PIC16F877
;CRC=AE62  CREATED="10-Nov-19 21:53"
